{
  "contractName": "citizen",
  "abi": [
    {
      "anonymous": false,
      "inputs": [
        {
          "indexed": true,
          "internalType": "uint256",
          "name": "RationCardNo",
          "type": "uint256"
        },
        {
          "indexed": true,
          "internalType": "address",
          "name": "wallet",
          "type": "address"
        }
      ],
      "name": "BeneficiaryRegistration",
      "type": "event"
    },
    {
      "anonymous": false,
      "inputs": [
        {
          "indexed": true,
          "internalType": "address",
          "name": "previousOwner",
          "type": "address"
        },
        {
          "indexed": true,
          "internalType": "address",
          "name": "newOwner",
          "type": "address"
        }
      ],
      "name": "OwnershipTransferred",
      "type": "event"
    },
    {
      "inputs": [
        {
          "internalType": "bytes32",
          "name": "_messageHash",
          "type": "bytes32"
        }
      ],
      "name": "getEthSignedMessageHash",
      "outputs": [
        {
          "internalType": "bytes32",
          "name": "",
          "type": "bytes32"
        }
      ],
      "stateMutability": "pure",
      "type": "function"
    },
    {
      "inputs": [
        {
          "internalType": "bytes32",
          "name": "_messageHash",
          "type": "bytes32"
        }
      ],
      "name": "getEthSignedMessageHashForPurchase",
      "outputs": [
        {
          "internalType": "bytes32",
          "name": "",
          "type": "bytes32"
        }
      ],
      "stateMutability": "pure",
      "type": "function"
    },
    {
      "inputs": [
        {
          "internalType": "uint256",
          "name": "_identityNo",
          "type": "uint256"
        },
        {
          "internalType": "string",
          "name": "ipfsCID",
          "type": "string"
        },
        {
          "internalType": "address",
          "name": "_wallet",
          "type": "address"
        }
      ],
      "name": "getMessageHash",
      "outputs": [
        {
          "internalType": "bytes32",
          "name": "",
          "type": "bytes32"
        }
      ],
      "stateMutability": "pure",
      "type": "function"
    },
    {
      "inputs": [
        {
          "internalType": "uint256",
          "name": "_rationCardNo",
          "type": "uint256"
        },
        {
          "internalType": "uint256",
          "name": "_rationShopNo",
          "type": "uint256"
        },
        {
          "internalType": "string",
          "name": "_itemName",
          "type": "string"
        }
      ],
      "name": "getMessageHashForPurchase",
      "outputs": [
        {
          "internalType": "bytes32",
          "name": "",
          "type": "bytes32"
        }
      ],
      "stateMutability": "pure",
      "type": "function"
    },
    {
      "inputs": [],
      "name": "owner",
      "outputs": [
        {
          "internalType": "address",
          "name": "",
          "type": "address"
        }
      ],
      "stateMutability": "view",
      "type": "function"
    },
    {
      "inputs": [
        {
          "internalType": "bytes32",
          "name": "_ethSignedMessageHash",
          "type": "bytes32"
        },
        {
          "internalType": "bytes",
          "name": "_signature",
          "type": "bytes"
        }
      ],
      "name": "recoverSigner",
      "outputs": [
        {
          "internalType": "address",
          "name": "",
          "type": "address"
        }
      ],
      "stateMutability": "pure",
      "type": "function"
    },
    {
      "inputs": [],
      "name": "renounceOwnership",
      "outputs": [],
      "stateMutability": "nonpayable",
      "type": "function"
    },
    {
      "inputs": [
        {
          "internalType": "bytes",
          "name": "_sig",
          "type": "bytes"
        }
      ],
      "name": "splitSignature",
      "outputs": [
        {
          "internalType": "bytes32",
          "name": "r",
          "type": "bytes32"
        },
        {
          "internalType": "bytes32",
          "name": "s",
          "type": "bytes32"
        },
        {
          "internalType": "uint8",
          "name": "v",
          "type": "uint8"
        }
      ],
      "stateMutability": "pure",
      "type": "function"
    },
    {
      "inputs": [
        {
          "internalType": "address",
          "name": "newOwner",
          "type": "address"
        }
      ],
      "name": "transferOwnership",
      "outputs": [],
      "stateMutability": "nonpayable",
      "type": "function"
    },
    {
      "inputs": [
        {
          "internalType": "uint256",
          "name": "",
          "type": "uint256"
        }
      ],
      "name": "user",
      "outputs": [
        {
          "internalType": "string",
          "name": "citizenIPFSLinkEnc",
          "type": "string"
        },
        {
          "internalType": "address",
          "name": "wallet",
          "type": "address"
        },
        {
          "internalType": "uint256",
          "name": "financialStatus",
          "type": "uint256"
        }
      ],
      "stateMutability": "view",
      "type": "function"
    },
    {
      "inputs": [
        {
          "internalType": "address",
          "name": "_signer",
          "type": "address"
        },
        {
          "internalType": "uint256",
          "name": "_identityNo",
          "type": "uint256"
        },
        {
          "internalType": "string",
          "name": "ipfsCID",
          "type": "string"
        },
        {
          "internalType": "address",
          "name": "_wallet",
          "type": "address"
        },
        {
          "internalType": "bytes",
          "name": "_signature",
          "type": "bytes"
        }
      ],
      "name": "verify",
      "outputs": [
        {
          "internalType": "bool",
          "name": "",
          "type": "bool"
        }
      ],
      "stateMutability": "pure",
      "type": "function"
    },
    {
      "inputs": [
        {
          "internalType": "address",
          "name": "_signer",
          "type": "address"
        },
        {
          "internalType": "uint256",
          "name": "_rationCardNo",
          "type": "uint256"
        },
        {
          "internalType": "uint256",
          "name": "_rationShopNo",
          "type": "uint256"
        },
        {
          "internalType": "string",
          "name": "_itemName",
          "type": "string"
        },
        {
          "internalType": "bytes",
          "name": "_signature",
          "type": "bytes"
        }
      ],
      "name": "verifyPurchase",
      "outputs": [
        {
          "internalType": "bool",
          "name": "",
          "type": "bool"
        }
      ],
      "stateMutability": "pure",
      "type": "function"
    },
    {
      "inputs": [
        {
          "internalType": "uint256",
          "name": "_rationCardNo",
          "type": "uint256"
        },
        {
          "internalType": "string",
          "name": "_citizenIPFSLinkEnc",
          "type": "string"
        },
        {
          "internalType": "address",
          "name": "_wallet",
          "type": "address"
        },
        {
          "internalType": "uint256",
          "name": "_financialStatus",
          "type": "uint256"
        },
        {
          "internalType": "bytes",
          "name": "_signature",
          "type": "bytes"
        }
      ],
      "name": "registerCitizen",
      "outputs": [],
      "stateMutability": "nonpayable",
      "type": "function"
    },
    {
      "inputs": [
        {
          "internalType": "uint256",
          "name": "_rationCardNo",
          "type": "uint256"
        },
        {
          "internalType": "string",
          "name": "_citizenIPFSLinkEnc",
          "type": "string"
        },
        {
          "internalType": "uint256",
          "name": "_financialStatus",
          "type": "uint256"
        }
      ],
      "name": "updateCitizenDetail",
      "outputs": [],
      "stateMutability": "nonpayable",
      "type": "function"
    },
    {
      "inputs": [
        {
          "internalType": "uint256",
          "name": "_rationCardNo",
          "type": "uint256"
        },
        {
          "internalType": "bytes",
          "name": "_signature",
          "type": "bytes"
        }
      ],
      "name": "removeCitizen",
      "outputs": [],
      "stateMutability": "nonpayable",
      "type": "function"
    }
  ],
  "bytecode": "0x608060405234801561001057600080fd5b5061001a3361001f565b61006f565b600080546001600160a01b038381166001600160a01b0319831681178455604051919092169283917f8be0079c531659141344cd1fd0a4f28419497f9722a3daafe3b4186f6b6457e09190a35050565b61115f8061007e6000396000f3fe608060405234801561001057600080fd5b50600436106100f55760003560e01c806397aba7f911610097578063c642043711610066578063c642043714610224578063e737625514610237578063f2fde38b1461024a578063fa5408011461015557600080fd5b806397aba7f9146101ba578063983f6460146101cd578063a2fe8e1a146101e0578063a7bb5803146101f357600080fd5b806364cbd2e2116100d357806364cbd2e214610155578063715018a6146101685780638da5cb5b14610172578063900ab19f1461019757600080fd5b806301b4cb25146100fa57806353600df114610120578063553275be14610133575b600080fd5b61010d610108366004610e87565b61025d565b6040519081526020015b60405180910390f35b61010d61012e366004610f9c565b610293565b610146610141366004610dea565b6102aa565b6040516101179392919061105d565b61010d610163366004610dea565b61035e565b6101706103b1565b005b6000546001600160a01b03165b6040516001600160a01b039091168152602001610117565b6101aa6101a5366004610d03565b61041c565b6040519015158152602001610117565b61017f6101c8366004610e03565b610463565b6101706101db366004610e03565b6104e2565b6101706101ee366004610f4c565b61065b565b610206610201366004610e4a565b6107f0565b60408051938452602084019290925260ff1690820152606001610117565b610170610232366004610ede565b610864565b6101aa610245366004610d92565b610a3c565b610170610258366004610ce1565b610a4a565b600083838360405160200161027493929190610fec565b6040516020818303038152906040528051906020012090509392505050565b600083838360405160200161027493929190611030565b6001602052600090815260409020805481906102c5906110d8565b80601f01602080910402602001604051908101604052809291908181526020018280546102f1906110d8565b801561033e5780601f106103135761010080835404028352916020019161033e565b820191906000526020600020905b81548152906001019060200180831161032157829003601f168201915b50505050600183015460029093015491926001600160a01b031691905083565b6040517f19457468657265756d205369676e6564204d6573736167650a333200000000006020820152603b8101829052600090605b01604051602081830303815290604052805190602001209050919050565b6000546001600160a01b031633146104105760405162461bcd60e51b815260206004820181905260248201527f4f776e61626c653a2063616c6c6572206973206e6f7420746865206f776e657260448201526064015b60405180910390fd5b61041a6000610b15565b565b60008061042a86868661025d565b905060006104378261035e565b9050876001600160a01b031661044d8286610463565b6001600160a01b03161498975050505050505050565b600080600080610472856107f0565b6040805160008152602081018083528b905260ff8316918101919091526060810184905260808101839052929550909350915060019060a0016020604051602081039080840390855afa1580156104cd573d6000803e3d6000fd5b5050604051601f190151979650505050505050565b600082815260016020526040808220815160608101909252805482908290610509906110d8565b80601f0160208091040260200160405190810160405280929190818152602001828054610535906110d8565b80156105825780601f1061055757610100808354040283529160200191610582565b820191906000526020600020905b81548152906001019060200180831161056557829003601f168201915b505050918352505060018201546001600160a01b03166020820152600290910154604090910152905060006105d36105c26000546001600160a01b031690565b85846000015185602001518761041c565b90506001811515146106215760405162461bcd60e51b81526020600482015260176024820152760e6d2cedcc2e8eae4ca40c8decae6dcdee840dac2e8c6d604b1b6044820152606401610407565b60008481526001602052604081209061063a8282610b65565b506001810180546001600160a01b0319169055600060029091015550505050565b600083815260016020526040808220815160608101909252805482908290610682906110d8565b80601f01602080910402602001604051908101604052809291908181526020018280546106ae906110d8565b80156106fb5780601f106106d0576101008083540402835291602001916106fb565b820191906000526020600020905b8154815290600101906020018083116106de57829003601f168201915b505050918352505060018201546001600160a01b0390811660208084019190915260029093015460409092019190915290820151919250166107895760405162461bcd60e51b815260206004820152602160248201527f7468697320526174696f6e2043617264204e6f20646f65736e6f7420657869736044820152601d60fa1b6064820152608401610407565b82815260408082018390526000858152600160209081529190208251805184936107b7928492910190610b9f565b5060208201516001820180546001600160a01b0319166001600160a01b0390921691909117905560409091015160029091015550505050565b600080600083516041146108465760405162461bcd60e51b815260206004820152601860248201527f696e76616c6964207369676e6174757265206c656e67746800000000000000006044820152606401610407565b50505060208101516040820151606090920151909260009190911a90565b600061088461087b6000546001600160a01b031690565b8787878661041c565b90506001811515146108d25760405162461bcd60e51b81526020600482015260176024820152760e6d2cedcc2e8eae4ca40c8decae6dcdee840dac2e8c6d604b1b6044820152606401610407565b6000868152600160205260408082208151606081019092528054829082906108f9906110d8565b80601f0160208091040260200160405190810160405280929190818152602001828054610925906110d8565b80156109725780601f1061094757610100808354040283529160200191610972565b820191906000526020600020905b81548152906001019060200180831161095557829003601f168201915b50505091835250506001828101546001600160a01b039081166020808501919091526002909401546040938401528a855289168484015283820188905260008b81529083522082518051939450849391926109d292849290910190610b9f565b5060208201516001820180546001600160a01b0319166001600160a01b0392831617905560409283015160029092019190915590519086169088907fad5e083d1dcaabaf848247e2de34e882f48294835689a36adc9eb2fdb5a6c46490600090a350505050505050565b60008061042a868686610293565b6000546001600160a01b03163314610aa45760405162461bcd60e51b815260206004820181905260248201527f4f776e61626c653a2063616c6c6572206973206e6f7420746865206f776e65726044820152606401610407565b6001600160a01b038116610b095760405162461bcd60e51b815260206004820152602660248201527f4f776e61626c653a206e6577206f776e657220697320746865207a65726f206160448201526564647265737360d01b6064820152608401610407565b610b1281610b15565b50565b600080546001600160a01b038381166001600160a01b0319831681178455604051919092169283917f8be0079c531659141344cd1fd0a4f28419497f9722a3daafe3b4186f6b6457e09190a35050565b508054610b71906110d8565b6000825580601f10610b81575050565b601f016020900490600052602060002090810190610b129190610c23565b828054610bab906110d8565b90600052602060002090601f016020900481019282610bcd5760008555610c13565b82601f10610be657805160ff1916838001178555610c13565b82800160010185558215610c13579182015b82811115610c13578251825591602001919060010190610bf8565b50610c1f929150610c23565b5090565b5b80821115610c1f5760008155600101610c24565b80356001600160a01b0381168114610c4f57600080fd5b919050565b600082601f830112610c6557600080fd5b813567ffffffffffffffff80821115610c8057610c80611113565b604051601f8301601f19908116603f01168101908282118183101715610ca857610ca8611113565b81604052838152866020858801011115610cc157600080fd5b836020870160208301376000602085830101528094505050505092915050565b600060208284031215610cf357600080fd5b610cfc82610c38565b9392505050565b600080600080600060a08688031215610d1b57600080fd5b610d2486610c38565b945060208601359350604086013567ffffffffffffffff80821115610d4857600080fd5b610d5489838a01610c54565b9450610d6260608901610c38565b93506080880135915080821115610d7857600080fd5b50610d8588828901610c54565b9150509295509295909350565b600080600080600060a08688031215610daa57600080fd5b610db386610c38565b94506020860135935060408601359250606086013567ffffffffffffffff80821115610dde57600080fd5b610d6289838a01610c54565b600060208284031215610dfc57600080fd5b5035919050565b60008060408385031215610e1657600080fd5b82359150602083013567ffffffffffffffff811115610e3457600080fd5b610e4085828601610c54565b9150509250929050565b600060208284031215610e5c57600080fd5b813567ffffffffffffffff811115610e7357600080fd5b610e7f84828501610c54565b949350505050565b600080600060608486031215610e9c57600080fd5b83359250602084013567ffffffffffffffff811115610eba57600080fd5b610ec686828701610c54565b925050610ed560408501610c38565b90509250925092565b600080600080600060a08688031215610ef657600080fd5b85359450602086013567ffffffffffffffff80821115610f1557600080fd5b610f2189838a01610c54565b9550610f2f60408901610c38565b9450606088013593506080880135915080821115610d7857600080fd5b600080600060608486031215610f6157600080fd5b83359250602084013567ffffffffffffffff811115610f7f57600080fd5b610f8b86828701610c54565b925050604084013590509250925092565b600080600060608486031215610fb157600080fd5b8335925060208401359150604084013567ffffffffffffffff811115610fd657600080fd5b610fe286828701610c54565b9150509250925092565b838152600083516110048160208501602088016110a8565b60609390931b6bffffffffffffffffffffffff1916602092909301918201929092526034019392505050565b8381528260208201526000825161104e8160408501602087016110a8565b91909101604001949350505050565b606081526000845180606084015261107c8160808501602089016110a8565b6001600160a01b039490941660208301525060408101919091526080601f909201601f19160101919050565b60005b838110156110c35781810151838201526020016110ab565b838111156110d2576000848401525b50505050565b600181811c908216806110ec57607f821691505b6020821081141561110d57634e487b7160e01b600052602260045260246000fd5b50919050565b634e487b7160e01b600052604160045260246000fdfea26469706673582212209a3af367cb803fa4e2dd05335a93c48aee55ffde2fb7d41c36d64ac9ce90f66d64736f6c63430008070033",
  "immutableReferences": {},
  "source": "// SPDX-License-Identifier: MIT\r\n\r\nimport \"./Ownable.sol\";\r\nimport \"./verifySignature.sol\";\r\n\r\npragma solidity ^0.8.7;\r\n\r\ncontract citizen is Ownable,verifySignature{\r\n\r\n    struct citizenDetail{\r\n        string citizenIPFSLinkEnc;\r\n        address wallet;\r\n        uint financialStatus;\r\n    }\r\n\r\n    mapping(uint => citizenDetail) public user;\r\n    event BeneficiaryRegistration(uint indexed RationCardNo,address indexed wallet);\r\n\r\n    function registerCitizen(uint _rationCardNo, string memory _citizenIPFSLinkEnc, address _wallet,uint _financialStatus, bytes memory _signature) public{\r\n        (bool _status) = verify(owner(), _rationCardNo,_citizenIPFSLinkEnc,_wallet,_signature);\r\n        require(_status == true,\"signature doesnot match\");\r\n        citizenDetail memory _citizen = user[_rationCardNo];\r\n        _citizen.citizenIPFSLinkEnc = _citizenIPFSLinkEnc;\r\n        _citizen.wallet = _wallet;\r\n        _citizen.financialStatus = _financialStatus;\r\n        user[_rationCardNo] = _citizen;\r\n        emit BeneficiaryRegistration(_rationCardNo,_wallet);\r\n    }\r\n\r\n    function updateCitizenDetail(uint _rationCardNo, string memory _citizenIPFSLinkEnc,uint _financialStatus)public{\r\n        citizenDetail memory _citizen = user[_rationCardNo];\r\n        require(_citizen.wallet != address(0),\"this Ration Card No doesnot exist\");\r\n        _citizen.citizenIPFSLinkEnc = _citizenIPFSLinkEnc;\r\n        _citizen.financialStatus = _financialStatus;\r\n        user[_rationCardNo] = _citizen;\r\n    }\r\n\r\n    function removeCitizen(uint _rationCardNo, bytes memory _signature) public{\r\n        citizenDetail memory _citizen = user[_rationCardNo];\r\n        (bool _status) = verify(owner(), _rationCardNo,_citizen.citizenIPFSLinkEnc,_citizen.wallet,_signature);\r\n        require(_status == true,\"signature doesnot match\");\r\n        delete user[_rationCardNo];\r\n    }    \r\n}",
  "sourcePath": "C:\\Users\\RAJDEEP\\Desktop\\JOB\\Hackathon\\EthForAll-2023\\contracts\\citizen.sol",
  "compiler": {
    "name": "solc",
    "version": "0.8.7+commit.e28d00a7.Emscripten.clang"
  },
  "schemaVersion": "3.4.3",
  "updatedAt": "2023-02-19T16:52:21.484Z",
  "devdoc": {
    "kind": "dev",
    "methods": {
      "owner()": {
        "details": "Returns the address of the current owner."
      },
      "renounceOwnership()": {
        "details": "Leaves the contract without owner. It will not be possible to call `onlyOwner` functions anymore. Can only be called by the current owner. NOTE: Renouncing ownership will leave the contract without an owner, thereby removing any functionality that is only available to the owner."
      },
      "transferOwnership(address)": {
        "details": "Transfers ownership of the contract to a new account (`newOwner`). Can only be called by the current owner."
      }
    },
    "version": 1
  },
  "userdoc": {
    "kind": "user",
    "methods": {},
    "version": 1
  }
}