{
  "contractName": "dateTime",
  "abi": [
    {
      "inputs": [
        {
          "internalType": "uint256",
          "name": "timestamp",
          "type": "uint256"
        }
      ],
      "name": "getDay",
      "outputs": [
        {
          "internalType": "uint8",
          "name": "",
          "type": "uint8"
        }
      ],
      "stateMutability": "pure",
      "type": "function"
    }
  ],
  "bytecode": "0x608060405234801561001057600080fd5b5061066c806100206000396000f3fe608060405234801561001057600080fd5b506004361061002b5760003560e01c806365c7284014610030575b600080fd5b61004361003e366004610517565b610059565b60405160ff909116815260200160405180910390f35b60006100648261006e565b6040015192915050565b6040805160e081018252600080825260208201819052918101829052606081018290526080810182905260a0810182905260c081018290529080806100b285610256565b61ffff1684526100c36107b261034b565b84516100d29061ffff1661034b565b6100dc919061059e565b91506100ec826301e2850061055c565b6100f69084610530565b9250816107b2856000015161010b919061057b565b61ffff16610119919061059e565b610127906301e1338061055c565b6101319084610530565b92506000600191505b600c8260ff16116101a257610153828660000151610396565b6101639060ff166201518061055c565b9050856101708583610530565b11156101845760ff821660208601526101a2565b61018e8185610530565b93508161019a816105b5565b92505061013a565b600191505b6101b985602001518660000151610396565b60ff168260ff161161020857856101d38562015180610530565b11156101e75760ff82166040860152610208565b6101f46201518085610530565b935081610200816105b5565b9250506101a7565b6102118661045d565b60ff16606086015261022286610481565b60ff1660808601526102338661048f565b60ff1660a08601526102448661049c565b60ff1660c08601525092949350505050565b60008080806102696301e1338086610548565b610275906107b2610530565b91506102826107b261034b565b61028f8361ffff1661034b565b610299919061059e565b90506102a9816301e2850061055c565b6102b39084610530565b9250806102c26107b28461057b565b61ffff166102d0919061059e565b6102de906301e1338061055c565b6102e89084610530565b92505b848311156103435761030661030160018461057b565b6104b8565b15610320576103196301e285008461059e565b9250610331565b61032e6301e133808461059e565b92505b61033c60018361057b565b91506102eb565b509392505050565b600061035860018361059e565b915061036661019083610548565b610371606484610548565b61037c600485610548565b610386919061059e565b6103909190610530565b92915050565b60008260ff16600114806103ad57508260ff166003145b806103bb57508260ff166005145b806103c957508260ff166007145b806103d757508260ff166008145b806103e557508260ff16600a145b806103f357508260ff16600c145b156104005750601f610390565b8260ff166004148061041557508260ff166006145b8061042357508260ff166009145b8061043157508260ff16600b145b1561043e5750601e610390565b610447826104b8565b156104545750601d610390565b50601c92915050565b60006018603c61046d8185610548565b6104779190610548565b61039091906105f6565b6000603c6104778184610548565b6000610390603c836105f6565b600060076104ad6201518084610548565b610477906004610530565b60006104c56004836105d5565b61ffff16156104d657506000919050565b6104e16064836105d5565b61ffff16156104f257506001919050565b6104fe610190836105d5565b61ffff161561050f57506000919050565b506001919050565b60006020828403121561052957600080fd5b5035919050565b600082198211156105435761054361060a565b500190565b60008261055757610557610620565b500490565b60008160001904831182151516156105765761057661060a565b500290565b600061ffff838116908316818110156105965761059661060a565b039392505050565b6000828210156105b0576105b061060a565b500390565b600060ff821660ff8114156105cc576105cc61060a565b60010192915050565b600061ffff808416806105ea576105ea610620565b92169190910692915050565b60008261060557610605610620565b500690565b634e487b7160e01b600052601160045260246000fd5b634e487b7160e01b600052601260045260246000fdfea2646970667358221220f788305dfe6bec50c8a26c1c5523b7d5ef6d526d159285fe880b1af7420b8dc164736f6c63430008070033",
  "immutableReferences": {},
  "source": "// SPDX-License-Identifier: MIT\r\npragma solidity ^0.8.0;\r\n \r\ncontract dateTime {\r\n        /*\r\n         *  Date and Time utilities for ethereum contracts\r\n         *\r\n         */\r\n        struct _DateTime {\r\n                uint16 year;\r\n                uint8 month;\r\n                uint8 day;\r\n                uint8 hour;\r\n                uint8 minute;\r\n                uint8 second;\r\n                uint8 weekday;\r\n        }\r\n\r\n        uint constant DAY_IN_SECONDS = 86400;\r\n        uint constant YEAR_IN_SECONDS = 31536000;\r\n        uint constant LEAP_YEAR_IN_SECONDS = 31622400;\r\n\r\n        uint constant HOUR_IN_SECONDS = 3600;\r\n        uint constant MINUTE_IN_SECONDS = 60;\r\n\r\n        uint16 constant ORIGIN_YEAR = 1970;\r\n\r\n        function isLeapYear(uint16 year) private pure returns (bool) {\r\n                if (year % 4 != 0) {\r\n                        return false;\r\n                }\r\n                if (year % 100 != 0) {\r\n                        return true;\r\n                }\r\n                if (year % 400 != 0) {\r\n                        return false;\r\n                }\r\n                return true;\r\n        }\r\n\r\n        function leapYearsBefore(uint year) private pure returns (uint) {\r\n                year -= 1;\r\n                return year / 4 - year / 100 + year / 400;\r\n        }\r\n\r\n        function getDaysInMonth(uint8 month, uint16 year) private pure returns (uint8) {\r\n                if (month == 1 || month == 3 || month == 5 || month == 7 || month == 8 || month == 10 || month == 12) {\r\n                        return 31;\r\n                }\r\n                else if (month == 4 || month == 6 || month == 9 || month == 11) {\r\n                        return 30;\r\n                }\r\n                else if (isLeapYear(year)) {\r\n                        return 29;\r\n                }\r\n                else {\r\n                        return 28;\r\n                }\r\n        }\r\n\r\n        function parseTimestamp(uint timestamp) internal pure returns (_DateTime memory dt) {\r\n                uint secondsAccountedFor = 0;\r\n                uint buf;\r\n                uint8 i;\r\n\r\n                // Year\r\n                dt.year = getYear(timestamp);\r\n                buf = leapYearsBefore(dt.year) - leapYearsBefore(ORIGIN_YEAR);\r\n\r\n                secondsAccountedFor += LEAP_YEAR_IN_SECONDS * buf;\r\n                secondsAccountedFor += YEAR_IN_SECONDS * (dt.year - ORIGIN_YEAR - buf);\r\n\r\n                // Month\r\n                uint secondsInMonth;\r\n                for (i = 1; i <= 12; i++) {\r\n                        secondsInMonth = DAY_IN_SECONDS * getDaysInMonth(i, dt.year);\r\n                        if (secondsInMonth + secondsAccountedFor > timestamp) {\r\n                                dt.month = i;\r\n                                break;\r\n                        }\r\n                        secondsAccountedFor += secondsInMonth;\r\n                }\r\n\r\n                // Day\r\n                for (i = 1; i <= getDaysInMonth(dt.month, dt.year); i++) {\r\n                        if (DAY_IN_SECONDS + secondsAccountedFor > timestamp) {\r\n                                dt.day = i;\r\n                                break;\r\n                        }\r\n                        secondsAccountedFor += DAY_IN_SECONDS;\r\n                }\r\n\r\n                // Hour\r\n                dt.hour = getHour(timestamp);\r\n\r\n                // Minute\r\n                dt.minute = getMinute(timestamp);\r\n\r\n                // Second\r\n                dt.second = getSecond(timestamp);\r\n\r\n                // Day of week.\r\n                dt.weekday = getWeekday(timestamp);\r\n        }\r\n\r\n        function getYear(uint timestamp) private pure returns (uint16) {\r\n                uint secondsAccountedFor = 0;\r\n                uint16 year;\r\n                uint numLeapYears;\r\n\r\n                // Year\r\n                year = uint16(ORIGIN_YEAR + timestamp / YEAR_IN_SECONDS);\r\n                numLeapYears = leapYearsBefore(year) - leapYearsBefore(ORIGIN_YEAR);\r\n\r\n                secondsAccountedFor += LEAP_YEAR_IN_SECONDS * numLeapYears;\r\n                secondsAccountedFor += YEAR_IN_SECONDS * (year - ORIGIN_YEAR - numLeapYears);\r\n\r\n                while (secondsAccountedFor > timestamp) {\r\n                        if (isLeapYear(uint16(year - 1))) {\r\n                                secondsAccountedFor -= LEAP_YEAR_IN_SECONDS;\r\n                        }\r\n                        else {\r\n                                secondsAccountedFor -= YEAR_IN_SECONDS;\r\n                        }\r\n                        year -= 1;\r\n                }\r\n                return year;\r\n        }\r\n\r\n        function getMonth(uint timestamp) private pure returns (uint8) {\r\n                return parseTimestamp(timestamp).month;\r\n        }\r\n\r\n       function getDay(uint timestamp) public pure returns (uint8) {\r\n                return parseTimestamp(timestamp).day;\r\n        }\r\n        \r\n       /* function getDay() public view returns (uint8) {\r\n            uint timestamp=block.timestamp;\r\n            return parseTimestamp(timestamp).day;\r\n        }*/\r\n\r\n        function getHour(uint timestamp) private pure returns (uint8) {\r\n                return uint8((timestamp / 60 / 60) % 24);\r\n        }\r\n\r\n        function getMinute(uint timestamp) private pure returns (uint8) {\r\n                return uint8((timestamp / 60) % 60);\r\n        }\r\n\r\n        function getSecond(uint timestamp) private pure returns (uint8) {\r\n                return uint8(timestamp % 60);\r\n        }\r\n\r\n        function getWeekday(uint timestamp) private pure returns (uint8) {\r\n                return uint8((timestamp / DAY_IN_SECONDS + 4) % 7);\r\n        }\r\n}",
  "sourcePath": "C:\\Users\\RAJDEEP\\Desktop\\JOB\\Hackathon\\EthForAll-2023\\contracts\\dateTime.sol",
  "compiler": {
    "name": "solc",
    "version": "0.8.7+commit.e28d00a7.Emscripten.clang"
  },
  "schemaVersion": "3.4.3",
  "updatedAt": "2023-02-19T16:52:21.576Z",
  "devdoc": {
    "kind": "dev",
    "methods": {},
    "version": 1
  },
  "userdoc": {
    "kind": "user",
    "methods": {},
    "version": 1
  }
}