{
  "contractName": "item",
  "abi": [
    {
      "anonymous": false,
      "inputs": [
        {
          "indexed": true,
          "internalType": "address",
          "name": "previousOwner",
          "type": "address"
        },
        {
          "indexed": true,
          "internalType": "address",
          "name": "newOwner",
          "type": "address"
        }
      ],
      "name": "OwnershipTransferred",
      "type": "event"
    },
    {
      "anonymous": false,
      "inputs": [
        {
          "indexed": false,
          "internalType": "string",
          "name": "itemName",
          "type": "string"
        },
        {
          "indexed": true,
          "internalType": "uint256",
          "name": "aplPrice",
          "type": "uint256"
        },
        {
          "indexed": true,
          "internalType": "uint256",
          "name": "bplPrice",
          "type": "uint256"
        },
        {
          "indexed": false,
          "internalType": "uint256",
          "name": "weight",
          "type": "uint256"
        }
      ],
      "name": "itemDetail",
      "type": "event"
    },
    {
      "inputs": [
        {
          "internalType": "string",
          "name": "",
          "type": "string"
        }
      ],
      "name": "items",
      "outputs": [
        {
          "internalType": "uint256",
          "name": "bplPrice",
          "type": "uint256"
        },
        {
          "internalType": "uint256",
          "name": "aplPrice",
          "type": "uint256"
        },
        {
          "internalType": "uint256",
          "name": "weight",
          "type": "uint256"
        }
      ],
      "stateMutability": "view",
      "type": "function"
    },
    {
      "inputs": [],
      "name": "owner",
      "outputs": [
        {
          "internalType": "address",
          "name": "",
          "type": "address"
        }
      ],
      "stateMutability": "view",
      "type": "function"
    },
    {
      "inputs": [],
      "name": "renounceOwnership",
      "outputs": [],
      "stateMutability": "nonpayable",
      "type": "function"
    },
    {
      "inputs": [
        {
          "internalType": "address",
          "name": "newOwner",
          "type": "address"
        }
      ],
      "name": "transferOwnership",
      "outputs": [],
      "stateMutability": "nonpayable",
      "type": "function"
    },
    {
      "inputs": [
        {
          "internalType": "string[]",
          "name": "_itemName",
          "type": "string[]"
        },
        {
          "internalType": "uint256[]",
          "name": "_bplPrice",
          "type": "uint256[]"
        },
        {
          "internalType": "uint256[]",
          "name": "_aplPrice",
          "type": "uint256[]"
        },
        {
          "internalType": "uint256[]",
          "name": "_weight",
          "type": "uint256[]"
        }
      ],
      "name": "registerItems",
      "outputs": [],
      "stateMutability": "nonpayable",
      "type": "function"
    },
    {
      "inputs": [
        {
          "internalType": "string",
          "name": "_itemName",
          "type": "string"
        },
        {
          "internalType": "uint256",
          "name": "_bplPrice",
          "type": "uint256"
        },
        {
          "internalType": "uint256",
          "name": "_aplPrice",
          "type": "uint256"
        },
        {
          "internalType": "uint256",
          "name": "_weight",
          "type": "uint256"
        },
        {
          "internalType": "uint256",
          "name": "_status",
          "type": "uint256"
        }
      ],
      "name": "editRegisteredItem",
      "outputs": [],
      "stateMutability": "nonpayable",
      "type": "function"
    }
  ],
  "bytecode": "0x608060405234801561001057600080fd5b5061001a3361001f565b61006f565b600080546001600160a01b038381166001600160a01b0319831681178455604051919092169283917f8be0079c531659141344cd1fd0a4f28419497f9722a3daafe3b4186f6b6457e09190a35050565b610a458061007e6000396000f3fe608060405234801561001057600080fd5b50600436106100625760003560e01c80634909b29b146100675780636dc0aec9146100c5578063715018a6146100da57806380e924f4146100e25780638da5cb5b146100f5578063f2fde38b14610110575b600080fd5b6100a5610075366004610844565b80516020818301810180516001808352938301929094019190912092905281549082015460029092015490919083565b604080519384526020840192909252908201526060015b60405180910390f35b6100d86100d33660046106f0565b610123565b005b6100d86103b8565b6100d86100f03660046107b4565b6103ee565b6000546040516001600160a01b0390911681526020016100bc565b6100d861011e3660046106c0565b610589565b6000546001600160a01b031633146101565760405162461bcd60e51b815260040161014d9061093e565b60405180910390fd5b86858114801561016557508084145b801561017057508082145b6101bc5760405162461bcd60e51b815260206004820152601860248201527f616c6c206461746120617265206e6f742070726f766964650000000000000000604482015260640161014d565b60005b818110156103ac57600060018b8b848181106101dd576101dd6109e3565b90506020028101906101ef9190610973565b6040516101fd9291906108f5565b9081526040805191829003602090810183206060840183528054845260018101549184019190915260020154908201529050888883818110610241576102416109e3565b602002919091013582525086868381811061025e5761025e6109e3565b90506020020135816020018181525050848483818110610280576102806109e3565b60200291909101356040830152508060018c8c858181106102a3576102a36109e3565b90506020028101906102b59190610973565b6040516102c39291906108f5565b9081526020016040518091039020600082015181600001556020820151816001015560408201518160020155905050868683818110610304576103046109e3565b9050602002013589898481811061031d5761031d6109e3565b905060200201357fc278876ebb8a77ed95754059ff4c90b5faff4c9f0753492d58d9eb300a83bc9f8d8d86818110610357576103576109e3565b90506020028101906103699190610973565b89898881811061037b5761037b6109e3565b9050602002013560405161039193929190610905565b60405180910390a350806103a4816109ba565b9150506101bf565b50505050505050505050565b6000546001600160a01b031633146103e25760405162461bcd60e51b815260040161014d9061093e565b6103ec6000610624565b565b6000546001600160a01b031633146104185760405162461bcd60e51b815260040161014d9061093e565b60006001878760405161042c9291906108f5565b90815260408051918290036020908101832060608401835280548452600181015491840191909152600201549082018190529091506104ad5760405162461bcd60e51b815260206004820152601960248201527f706c656173652072656769737465722074686973206974656d00000000000000604482015260640161014d565b81600114156104ee57600187876040516104c89291906108f5565b908152604051908190036020019020600080825560018201819055600290910155610580565b848152602081018490526040808201849052518190600190610513908a908a906108f5565b908152602001604051809103902060008201518160000155602082015181600101556040820151816002015590505083857fc278876ebb8a77ed95754059ff4c90b5faff4c9f0753492d58d9eb300a83bc9f89898760405161057793929190610905565b60405180910390a35b50505050505050565b6000546001600160a01b031633146105b35760405162461bcd60e51b815260040161014d9061093e565b6001600160a01b0381166106185760405162461bcd60e51b815260206004820152602660248201527f4f776e61626c653a206e6577206f776e657220697320746865207a65726f206160448201526564647265737360d01b606482015260840161014d565b61062181610624565b50565b600080546001600160a01b038381166001600160a01b0319831681178455604051919092169283917f8be0079c531659141344cd1fd0a4f28419497f9722a3daafe3b4186f6b6457e09190a35050565b60008083601f84011261068657600080fd5b50813567ffffffffffffffff81111561069e57600080fd5b6020830191508360208260051b85010111156106b957600080fd5b9250929050565b6000602082840312156106d257600080fd5b81356001600160a01b03811681146106e957600080fd5b9392505050565b6000806000806000806000806080898b03121561070c57600080fd5b883567ffffffffffffffff8082111561072457600080fd5b6107308c838d01610674565b909a50985060208b013591508082111561074957600080fd5b6107558c838d01610674565b909850965060408b013591508082111561076e57600080fd5b61077a8c838d01610674565b909650945060608b013591508082111561079357600080fd5b506107a08b828c01610674565b999c989b5096995094979396929594505050565b60008060008060008060a087890312156107cd57600080fd5b863567ffffffffffffffff808211156107e557600080fd5b818901915089601f8301126107f957600080fd5b81358181111561080857600080fd5b8a602082850101111561081a57600080fd5b60209283019b909a5091890135986040810135985060608101359750608001359550909350505050565b60006020828403121561085657600080fd5b813567ffffffffffffffff8082111561086e57600080fd5b818401915084601f83011261088257600080fd5b813581811115610894576108946109f9565b604051601f8201601f19908116603f011681019083821181831017156108bc576108bc6109f9565b816040528281528760208487010111156108d557600080fd5b826020860160208301376000928101602001929092525095945050505050565b8183823760009101908152919050565b604081528260408201528284606083013760006060848301015260006060601f19601f8601168301019050826020830152949350505050565b6020808252818101527f4f776e61626c653a2063616c6c6572206973206e6f7420746865206f776e6572604082015260600190565b6000808335601e1984360301811261098a57600080fd5b83018035915067ffffffffffffffff8211156109a557600080fd5b6020019150368190038213156106b957600080fd5b60006000198214156109dc57634e487b7160e01b600052601160045260246000fd5b5060010190565b634e487b7160e01b600052603260045260246000fd5b634e487b7160e01b600052604160045260246000fdfea26469706673582212205c3c0ede5f1c786b66f50063d13d0d5ea902b11ed129f6da067eb025de058fab64736f6c63430008070033",
  "immutableReferences": {},
  "source": "// SPDX-License-Identifier: MIT\r\n\r\nimport \"./Ownable.sol\";\r\n\r\npragma solidity ^0.8.7;\r\n\r\ncontract item is Ownable{\r\n\r\n    struct registerItem{\r\n        uint bplPrice;\r\n        uint aplPrice;\r\n        uint weight;\r\n    }\r\n\r\n    mapping(string => registerItem) public items;\r\n    event itemDetail(string itemName,uint indexed aplPrice,uint indexed bplPrice,uint weight);\r\n\r\n    function registerItems(string[] calldata _itemName,uint[] calldata _bplPrice, uint[] calldata _aplPrice,uint[] calldata _weight) public onlyOwner{\r\n        uint len = _itemName.length;\r\n        require(len == _bplPrice.length && len == _aplPrice.length && len == _weight.length,\"all data are not provide\");\r\n        for(uint i; i<len;i++){\r\n            registerItem memory goods = items[_itemName[i]];\r\n            goods.bplPrice = _bplPrice[i];\r\n            goods.aplPrice = _aplPrice[i];\r\n            goods.weight = _weight[i];\r\n            items[_itemName[i]] = goods;\r\n            emit itemDetail(_itemName[i],_bplPrice[i],_aplPrice[i],_weight[i]);\r\n        }\r\n    }\r\n\r\n    //status 0 -> change and 1 -> remove\r\n    function editRegisteredItem(string calldata _itemName,uint _bplPrice, uint _aplPrice,uint _weight, uint _status) public onlyOwner{\r\n        registerItem memory goods = items[_itemName];\r\n        require(goods.weight != 0, \"please register this item\");\r\n        if(_status == 1){\r\n            delete items[_itemName];\r\n        }\r\n        else{\r\n           goods.bplPrice = _bplPrice;\r\n           goods.aplPrice = _aplPrice;\r\n           goods.weight = _weight;\r\n           items[_itemName] = goods;\r\n           emit itemDetail(_itemName,_bplPrice,_aplPrice,_weight); \r\n        }\r\n    }\r\n}\r\n",
  "sourcePath": "C:\\Users\\RAJDEEP\\Desktop\\JOB\\Hackathon\\EthForAll-2023\\contracts\\item.sol",
  "compiler": {
    "name": "solc",
    "version": "0.8.7+commit.e28d00a7.Emscripten.clang"
  },
  "schemaVersion": "3.4.3",
  "updatedAt": "2023-02-19T16:52:21.628Z",
  "devdoc": {
    "kind": "dev",
    "methods": {
      "owner()": {
        "details": "Returns the address of the current owner."
      },
      "renounceOwnership()": {
        "details": "Leaves the contract without owner. It will not be possible to call `onlyOwner` functions anymore. Can only be called by the current owner. NOTE: Renouncing ownership will leave the contract without an owner, thereby removing any functionality that is only available to the owner."
      },
      "transferOwnership(address)": {
        "details": "Transfers ownership of the contract to a new account (`newOwner`). Can only be called by the current owner."
      }
    },
    "version": 1
  },
  "userdoc": {
    "kind": "user",
    "methods": {},
    "version": 1
  }
}