{
  "contractName": "rationDistribution",
  "abi": [
    {
      "anonymous": false,
      "inputs": [
        {
          "indexed": true,
          "internalType": "uint256",
          "name": "RationCardNo",
          "type": "uint256"
        },
        {
          "indexed": true,
          "internalType": "address",
          "name": "wallet",
          "type": "address"
        }
      ],
      "name": "BeneficiaryRegistration",
      "type": "event"
    },
    {
      "anonymous": false,
      "inputs": [
        {
          "indexed": true,
          "internalType": "address",
          "name": "previousOwner",
          "type": "address"
        },
        {
          "indexed": true,
          "internalType": "address",
          "name": "newOwner",
          "type": "address"
        }
      ],
      "name": "OwnershipTransferred",
      "type": "event"
    },
    {
      "anonymous": false,
      "inputs": [
        {
          "indexed": true,
          "internalType": "uint256",
          "name": "rationCardNo",
          "type": "uint256"
        },
        {
          "indexed": true,
          "internalType": "uint256",
          "name": "ReceiptNo",
          "type": "uint256"
        }
      ],
      "name": "RationDelivery",
      "type": "event"
    },
    {
      "anonymous": false,
      "inputs": [
        {
          "indexed": true,
          "internalType": "uint256",
          "name": "rationShopId",
          "type": "uint256"
        },
        {
          "indexed": false,
          "internalType": "string",
          "name": "itemName",
          "type": "string"
        },
        {
          "indexed": false,
          "internalType": "uint256",
          "name": "weight",
          "type": "uint256"
        }
      ],
      "name": "StoreItemToRationShop",
      "type": "event"
    },
    {
      "anonymous": false,
      "inputs": [
        {
          "indexed": false,
          "internalType": "string",
          "name": "itemName",
          "type": "string"
        },
        {
          "indexed": true,
          "internalType": "uint256",
          "name": "aplPrice",
          "type": "uint256"
        },
        {
          "indexed": true,
          "internalType": "uint256",
          "name": "bplPrice",
          "type": "uint256"
        },
        {
          "indexed": false,
          "internalType": "uint256",
          "name": "weight",
          "type": "uint256"
        }
      ],
      "name": "itemDetail",
      "type": "event"
    },
    {
      "anonymous": false,
      "inputs": [
        {
          "indexed": true,
          "internalType": "uint256",
          "name": "RationShopNo",
          "type": "uint256"
        },
        {
          "indexed": true,
          "internalType": "address",
          "name": "wallet",
          "type": "address"
        }
      ],
      "name": "rationShopRegistration",
      "type": "event"
    },
    {
      "inputs": [
        {
          "internalType": "string",
          "name": "_itemName",
          "type": "string"
        },
        {
          "internalType": "uint256",
          "name": "_bplPrice",
          "type": "uint256"
        },
        {
          "internalType": "uint256",
          "name": "_aplPrice",
          "type": "uint256"
        },
        {
          "internalType": "uint256",
          "name": "_weight",
          "type": "uint256"
        },
        {
          "internalType": "uint256",
          "name": "_status",
          "type": "uint256"
        }
      ],
      "name": "editRegisteredItem",
      "outputs": [],
      "stateMutability": "nonpayable",
      "type": "function"
    },
    {
      "inputs": [
        {
          "internalType": "uint256",
          "name": "timestamp",
          "type": "uint256"
        }
      ],
      "name": "getDay",
      "outputs": [
        {
          "internalType": "uint8",
          "name": "",
          "type": "uint8"
        }
      ],
      "stateMutability": "pure",
      "type": "function",
      "constant": true
    },
    {
      "inputs": [
        {
          "internalType": "bytes32",
          "name": "_messageHash",
          "type": "bytes32"
        }
      ],
      "name": "getEthSignedMessageHash",
      "outputs": [
        {
          "internalType": "bytes32",
          "name": "",
          "type": "bytes32"
        }
      ],
      "stateMutability": "pure",
      "type": "function",
      "constant": true
    },
    {
      "inputs": [
        {
          "internalType": "bytes32",
          "name": "_messageHash",
          "type": "bytes32"
        }
      ],
      "name": "getEthSignedMessageHashForPurchase",
      "outputs": [
        {
          "internalType": "bytes32",
          "name": "",
          "type": "bytes32"
        }
      ],
      "stateMutability": "pure",
      "type": "function",
      "constant": true
    },
    {
      "inputs": [
        {
          "internalType": "uint256",
          "name": "_identityNo",
          "type": "uint256"
        },
        {
          "internalType": "string",
          "name": "ipfsCID",
          "type": "string"
        },
        {
          "internalType": "address",
          "name": "_wallet",
          "type": "address"
        }
      ],
      "name": "getMessageHash",
      "outputs": [
        {
          "internalType": "bytes32",
          "name": "",
          "type": "bytes32"
        }
      ],
      "stateMutability": "pure",
      "type": "function",
      "constant": true
    },
    {
      "inputs": [
        {
          "internalType": "uint256",
          "name": "_rationCardNo",
          "type": "uint256"
        },
        {
          "internalType": "uint256",
          "name": "_rationShopNo",
          "type": "uint256"
        },
        {
          "internalType": "string",
          "name": "_itemName",
          "type": "string"
        }
      ],
      "name": "getMessageHashForPurchase",
      "outputs": [
        {
          "internalType": "bytes32",
          "name": "",
          "type": "bytes32"
        }
      ],
      "stateMutability": "pure",
      "type": "function",
      "constant": true
    },
    {
      "inputs": [
        {
          "internalType": "uint256",
          "name": "",
          "type": "uint256"
        },
        {
          "internalType": "string",
          "name": "",
          "type": "string"
        }
      ],
      "name": "goods",
      "outputs": [
        {
          "internalType": "uint256",
          "name": "",
          "type": "uint256"
        }
      ],
      "stateMutability": "view",
      "type": "function",
      "constant": true
    },
    {
      "inputs": [
        {
          "internalType": "string",
          "name": "",
          "type": "string"
        }
      ],
      "name": "items",
      "outputs": [
        {
          "internalType": "uint256",
          "name": "bplPrice",
          "type": "uint256"
        },
        {
          "internalType": "uint256",
          "name": "aplPrice",
          "type": "uint256"
        },
        {
          "internalType": "uint256",
          "name": "weight",
          "type": "uint256"
        }
      ],
      "stateMutability": "view",
      "type": "function",
      "constant": true
    },
    {
      "inputs": [],
      "name": "owner",
      "outputs": [
        {
          "internalType": "address",
          "name": "",
          "type": "address"
        }
      ],
      "stateMutability": "view",
      "type": "function",
      "constant": true
    },
    {
      "inputs": [
        {
          "internalType": "uint256",
          "name": "",
          "type": "uint256"
        }
      ],
      "name": "rationDelivery",
      "outputs": [
        {
          "internalType": "uint256",
          "name": "rationCardNo",
          "type": "uint256"
        },
        {
          "internalType": "uint256",
          "name": "rationShopNo",
          "type": "uint256"
        },
        {
          "internalType": "string",
          "name": "purchasedItem",
          "type": "string"
        },
        {
          "internalType": "uint256",
          "name": "deliveryTime",
          "type": "uint256"
        },
        {
          "internalType": "uint256",
          "name": "price",
          "type": "uint256"
        },
        {
          "internalType": "uint256",
          "name": "receiptNo",
          "type": "uint256"
        }
      ],
      "stateMutability": "view",
      "type": "function",
      "constant": true
    },
    {
      "inputs": [
        {
          "internalType": "bytes32",
          "name": "_ethSignedMessageHash",
          "type": "bytes32"
        },
        {
          "internalType": "bytes",
          "name": "_signature",
          "type": "bytes"
        }
      ],
      "name": "recoverSigner",
      "outputs": [
        {
          "internalType": "address",
          "name": "",
          "type": "address"
        }
      ],
      "stateMutability": "pure",
      "type": "function",
      "constant": true
    },
    {
      "inputs": [
        {
          "internalType": "uint256",
          "name": "_rationCardNo",
          "type": "uint256"
        },
        {
          "internalType": "string",
          "name": "_citizenIPFSLinkEnc",
          "type": "string"
        },
        {
          "internalType": "address",
          "name": "_wallet",
          "type": "address"
        },
        {
          "internalType": "uint256",
          "name": "_financialStatus",
          "type": "uint256"
        },
        {
          "internalType": "bytes",
          "name": "_signature",
          "type": "bytes"
        }
      ],
      "name": "registerCitizen",
      "outputs": [],
      "stateMutability": "nonpayable",
      "type": "function"
    },
    {
      "inputs": [
        {
          "internalType": "string[]",
          "name": "_itemName",
          "type": "string[]"
        },
        {
          "internalType": "uint256[]",
          "name": "_bplPrice",
          "type": "uint256[]"
        },
        {
          "internalType": "uint256[]",
          "name": "_aplPrice",
          "type": "uint256[]"
        },
        {
          "internalType": "uint256[]",
          "name": "_weight",
          "type": "uint256[]"
        }
      ],
      "name": "registerItems",
      "outputs": [],
      "stateMutability": "nonpayable",
      "type": "function"
    },
    {
      "inputs": [
        {
          "internalType": "uint256",
          "name": "_rationShopNo",
          "type": "uint256"
        },
        {
          "internalType": "string",
          "name": "_rationIPFSLink",
          "type": "string"
        },
        {
          "internalType": "address",
          "name": "_wallet",
          "type": "address"
        },
        {
          "internalType": "bytes",
          "name": "_signature",
          "type": "bytes"
        }
      ],
      "name": "registerRationShop",
      "outputs": [],
      "stateMutability": "nonpayable",
      "type": "function"
    },
    {
      "inputs": [
        {
          "internalType": "uint256",
          "name": "_rationCardNo",
          "type": "uint256"
        },
        {
          "internalType": "bytes",
          "name": "_signature",
          "type": "bytes"
        }
      ],
      "name": "removeCitizen",
      "outputs": [],
      "stateMutability": "nonpayable",
      "type": "function"
    },
    {
      "inputs": [
        {
          "internalType": "uint256",
          "name": "_rationShopNo",
          "type": "uint256"
        },
        {
          "internalType": "bytes",
          "name": "_signature",
          "type": "bytes"
        }
      ],
      "name": "removeRationShop",
      "outputs": [],
      "stateMutability": "nonpayable",
      "type": "function"
    },
    {
      "inputs": [],
      "name": "renounceOwnership",
      "outputs": [],
      "stateMutability": "nonpayable",
      "type": "function"
    },
    {
      "inputs": [
        {
          "internalType": "uint256",
          "name": "",
          "type": "uint256"
        }
      ],
      "name": "shop",
      "outputs": [
        {
          "internalType": "string",
          "name": "rationIPFSLink",
          "type": "string"
        },
        {
          "internalType": "address",
          "name": "wallet",
          "type": "address"
        }
      ],
      "stateMutability": "view",
      "type": "function",
      "constant": true
    },
    {
      "inputs": [
        {
          "internalType": "bytes",
          "name": "_sig",
          "type": "bytes"
        }
      ],
      "name": "splitSignature",
      "outputs": [
        {
          "internalType": "bytes32",
          "name": "r",
          "type": "bytes32"
        },
        {
          "internalType": "bytes32",
          "name": "s",
          "type": "bytes32"
        },
        {
          "internalType": "uint8",
          "name": "v",
          "type": "uint8"
        }
      ],
      "stateMutability": "pure",
      "type": "function",
      "constant": true
    },
    {
      "inputs": [
        {
          "internalType": "address",
          "name": "newOwner",
          "type": "address"
        }
      ],
      "name": "transferOwnership",
      "outputs": [],
      "stateMutability": "nonpayable",
      "type": "function"
    },
    {
      "inputs": [
        {
          "internalType": "uint256",
          "name": "_rationCardNo",
          "type": "uint256"
        },
        {
          "internalType": "string",
          "name": "_citizenIPFSLinkEnc",
          "type": "string"
        },
        {
          "internalType": "uint256",
          "name": "_financialStatus",
          "type": "uint256"
        }
      ],
      "name": "updateCitizenDetail",
      "outputs": [],
      "stateMutability": "nonpayable",
      "type": "function"
    },
    {
      "inputs": [
        {
          "internalType": "uint256",
          "name": "_rationShopNo",
          "type": "uint256"
        },
        {
          "internalType": "string",
          "name": "_rationIPFSLink",
          "type": "string"
        }
      ],
      "name": "updateRationShopDetail",
      "outputs": [],
      "stateMutability": "nonpayable",
      "type": "function"
    },
    {
      "inputs": [
        {
          "internalType": "uint256",
          "name": "",
          "type": "uint256"
        }
      ],
      "name": "user",
      "outputs": [
        {
          "internalType": "string",
          "name": "citizenIPFSLinkEnc",
          "type": "string"
        },
        {
          "internalType": "address",
          "name": "wallet",
          "type": "address"
        },
        {
          "internalType": "uint256",
          "name": "financialStatus",
          "type": "uint256"
        }
      ],
      "stateMutability": "view",
      "type": "function",
      "constant": true
    },
    {
      "inputs": [
        {
          "internalType": "address",
          "name": "_signer",
          "type": "address"
        },
        {
          "internalType": "uint256",
          "name": "_identityNo",
          "type": "uint256"
        },
        {
          "internalType": "string",
          "name": "ipfsCID",
          "type": "string"
        },
        {
          "internalType": "address",
          "name": "_wallet",
          "type": "address"
        },
        {
          "internalType": "bytes",
          "name": "_signature",
          "type": "bytes"
        }
      ],
      "name": "verify",
      "outputs": [
        {
          "internalType": "bool",
          "name": "",
          "type": "bool"
        }
      ],
      "stateMutability": "pure",
      "type": "function",
      "constant": true
    },
    {
      "inputs": [
        {
          "internalType": "address",
          "name": "_signer",
          "type": "address"
        },
        {
          "internalType": "uint256",
          "name": "_rationCardNo",
          "type": "uint256"
        },
        {
          "internalType": "uint256",
          "name": "_rationShopNo",
          "type": "uint256"
        },
        {
          "internalType": "string",
          "name": "_itemName",
          "type": "string"
        },
        {
          "internalType": "bytes",
          "name": "_signature",
          "type": "bytes"
        }
      ],
      "name": "verifyPurchase",
      "outputs": [
        {
          "internalType": "bool",
          "name": "",
          "type": "bool"
        }
      ],
      "stateMutability": "pure",
      "type": "function",
      "constant": true
    },
    {
      "inputs": [
        {
          "internalType": "uint256",
          "name": "_rationShopNo",
          "type": "uint256"
        },
        {
          "internalType": "string[]",
          "name": "_itemName",
          "type": "string[]"
        },
        {
          "internalType": "uint256[]",
          "name": "_weight",
          "type": "uint256[]"
        }
      ],
      "name": "addItemToRationShop",
      "outputs": [],
      "stateMutability": "nonpayable",
      "type": "function"
    },
    {
      "inputs": [],
      "name": "deleteRationDetails",
      "outputs": [],
      "stateMutability": "nonpayable",
      "type": "function"
    },
    {
      "inputs": [
        {
          "internalType": "uint256",
          "name": "_rationCardNo",
          "type": "uint256"
        },
        {
          "internalType": "uint256",
          "name": "_rationShopNo",
          "type": "uint256"
        },
        {
          "internalType": "string",
          "name": "_itemName",
          "type": "string"
        },
        {
          "internalType": "bytes",
          "name": "_signature",
          "type": "bytes"
        }
      ],
      "name": "rationDeliveryToCitizen",
      "outputs": [],
      "stateMutability": "nonpayable",
      "type": "function"
    }
  ],
  "bytecode": "0x608060405234801561001057600080fd5b5061001a3361001f565b61006f565b600080546001600160a01b038381166001600160a01b0319831681178455604051919092169283917f8be0079c531659141344cd1fd0a4f28419497f9722a3daafe3b4186f6b6457e09190a35050565b6131c6806200007f6000396000f3fe608060405234801561001057600080fd5b50600436106101c45760003560e01c8063900ab19f116100f9578063b92edcb411610097578063da69c08311610071578063da69c08314610472578063e737625514610493578063f2fde38b146104a6578063fa5408011461027d57600080fd5b8063b92edcb414610432578063c642043714610457578063d22489e91461046a57600080fd5b8063983f6460116100d3578063983f6460146103c8578063a2089bba146103db578063a2fe8e1a146103ee578063a7bb58031461040157600080fd5b8063900ab19f1461037f5780639034228d146103a257806397aba7f9146103b557600080fd5b80636c4fb7db11610166578063715018a611610140578063715018a61461032c5780637d16abdb1461033457806380e924f4146103475780638da5cb5b1461035a57600080fd5b80636c4fb7db146102ca5780636dc0aec9146103065780637056bbff1461031957600080fd5b8063553275be116101a2578063553275be1461025b57806364cbd2e21461027d57806365c72840146102905780636bbed429146102b557600080fd5b806301b4cb25146101c95780634909b29b146101ef57806353600df114610248575b600080fd5b6101dc6101d7366004612a8e565b6104b9565b6040519081526020015b60405180910390f35b61022d6101fd366004612978565b80516020818301810180516001808352938301929094019190912092905281549082015460029092015490919083565b604080519384526020840192909252908201526060016101e6565b6101dc610256366004612c7f565b6104ef565b61026e610269366004612919565b610506565b6040516101e693929190612e7a565b6101dc61028b366004612919565b6105ba565b6102a361029e366004612919565b61060d565b60405160ff90911681526020016101e6565b6102c86102c3366004612a15565b610622565b005b6101dc6102d8366004612932565b6004602090815260009283526040909220815180830184018051928152908401929093019190912091525481565b6102c8610314366004612856565b6107d7565b6102c8610327366004612932565b610a63565b6102c8610b9d565b6102c8610342366004612932565b610bd3565b6102c86103553660046129b4565b610d0f565b6000546001600160a01b03165b6040516001600160a01b0390911681526020016101e6565b61039261038d366004612771565b610ea9565b60405190151581526020016101e6565b6102c86103b0366004612ae4565b610ef0565b6103676103c3366004612932565b611081565b6102c86103d6366004612932565b611101565b6102c86103e9366004612c1d565b61123f565b6102c86103fc366004612bce565b6119a8565b61041461040f366004612978565b611b03565b60408051938452602084019290925260ff16908201526060016101e6565b610445610440366004612919565b611b77565b6040516101e696959493929190612f55565b6102c8610465366004612b61565b611c4b565b6102c8611dfa565b610485610480366004612919565b611ea3565b6040516101e6929190612e50565b6103926104a13660046127ff565b611f50565b6102c86104b436600461274f565b611f5e565b60008383836040516020016104d093929190612da6565b6040516020818303038152906040528051906020012090509392505050565b60008383836040516020016104d093929190612dea565b6002602052600090815260409020805481906105219061308d565b80601f016020809104026020016040519081016040528092919081815260200182805461054d9061308d565b801561059a5780601f1061056f5761010080835404028352916020019161059a565b820191906000526020600020905b81548152906001019060200180831161057d57829003601f168201915b50505050600183015460029093015491926001600160a01b031691905083565b6040517f19457468657265756d205369676e6564204d6573736167650a333200000000006020820152603b8101829052600090605b01604051602081830303815290604052805190602001209050919050565b600061061882611ff6565b6040015192915050565b6000546001600160a01b031633146106555760405162461bcd60e51b815260040161064c90612edf565b60405180910390fd5b808381146106ba5760405162461bcd60e51b815260206004820152602c60248201527f4e6f206f66206974656d206e616d65206973206e6f7420657175616c20746f2060448201526b1b9bc81bd98815d95a59da1d60a21b606482015260840161064c565b60005b818110156107ce578383828181106106d7576106d7613164565b905060200201356004600089815260200190815260200160002087878481811061070357610703613164565b90506020028101906107159190612f92565b604051610723929190612cfa565b908152602001604051809103902060008282546107409190612fd8565b909155508790507f58ec741c3539096d89468711bfbdde587adb930fc631680469f2421f21c466ec87878481811061077a5761077a613164565b905060200281019061078c9190612f92565b87878681811061079e5761079e613164565b905060200201356040516107b493929190612e17565b60405180910390a2806107c6816130c8565b9150506106bd565b50505050505050565b6000546001600160a01b031633146108015760405162461bcd60e51b815260040161064c90612edf565b86858114801561081057508084145b801561081b57508082145b6108675760405162461bcd60e51b815260206004820152601860248201527f616c6c206461746120617265206e6f742070726f766964650000000000000000604482015260640161064c565b60005b81811015610a5757600060018b8b8481811061088857610888613164565b905060200281019061089a9190612f92565b6040516108a8929190612cfa565b90815260408051918290036020908101832060608401835280548452600181015491840191909152600201549082015290508888838181106108ec576108ec613164565b602002919091013582525086868381811061090957610909613164565b9050602002013581602001818152505084848381811061092b5761092b613164565b60200291909101356040830152508060018c8c8581811061094e5761094e613164565b90506020028101906109609190612f92565b60405161096e929190612cfa565b90815260200160405180910390206000820151816000015560208201518160010155604082015181600201559050508686838181106109af576109af613164565b905060200201358989848181106109c8576109c8613164565b905060200201357fc278876ebb8a77ed95754059ff4c90b5faff4c9f0753492d58d9eb300a83bc9f8d8d86818110610a0257610a02613164565b9050602002810190610a149190612f92565b898988818110610a2657610a26613164565b90506020020135604051610a3c93929190612e17565b60405180910390a35080610a4f816130c8565b91505061086a565b50505050505050505050565b6000828152600360205260408082208151808301909252805482908290610a899061308d565b80601f0160208091040260200160405190810160405280929190818152602001828054610ab59061308d565b8015610b025780601f10610ad757610100808354040283529160200191610b02565b820191906000526020600020905b815481529060010190602001808311610ae557829003601f168201915b5050509183525050600191909101546001600160a01b039081166020928301529082015191925016610b465760405162461bcd60e51b815260040161064c90612f14565b8181526000838152600360209081526040909120825180518493610b6e9284929101906124e8565b5060209190910151600190910180546001600160a01b0319166001600160a01b03909216919091179055505050565b6000546001600160a01b03163314610bc75760405162461bcd60e51b815260040161064c90612edf565b610bd160006121de565b565b6000828152600360205260408082208151808301909252805482908290610bf99061308d565b80601f0160208091040260200160405190810160405280929190818152602001828054610c259061308d565b8015610c725780601f10610c4757610100808354040283529160200191610c72565b820191906000526020600020905b815481529060010190602001808311610c5557829003601f168201915b5050509183525050600191909101546001600160a01b031660209091015290506000610cba610ca96000546001600160a01b031690565b858460000151856020015187610ea9565b9050600181151514610cde5760405162461bcd60e51b815260040161064c90612ea8565b600084815260036020526040812090610cf7828261256c565b5060010180546001600160a01b031916905550505050565b6000546001600160a01b03163314610d395760405162461bcd60e51b815260040161064c90612edf565b600060018787604051610d4d929190612cfa565b9081526040805191829003602090810183206060840183528054845260018101549184019190915260020154908201819052909150610dce5760405162461bcd60e51b815260206004820152601960248201527f706c656173652072656769737465722074686973206974656d00000000000000604482015260640161064c565b8160011415610e0f5760018787604051610de9929190612cfa565b9081526040519081900360200190206000808255600182018190556002909101556107ce565b848152602081018490526040808201849052518190600190610e34908a908a90612cfa565b908152602001604051809103902060008201518160000155602082015181600101556040820151816002015590505083857fc278876ebb8a77ed95754059ff4c90b5faff4c9f0753492d58d9eb300a83bc9f898987604051610e9893929190612e17565b60405180910390a350505050505050565b600080610eb78686866104b9565b90506000610ec4826105ba565b9050876001600160a01b0316610eda8286611081565b6001600160a01b03161498975050505050505050565b6000610f10610f076000546001600160a01b031690565b86868686610ea9565b9050600181151514610f345760405162461bcd60e51b815260040161064c90612ea8565b6000858152600360205260408082208151808301909252805482908290610f5a9061308d565b80601f0160208091040260200160405190810160405280929190818152602001828054610f869061308d565b8015610fd35780601f10610fa857610100808354040283529160200191610fd3565b820191906000526020600020905b815481529060010190602001808311610fb657829003601f168201915b5050509183525050600191909101546001600160a01b03908116602092830152878352861682820152600088815260038252604090208251805193945084939192611023928492909101906124e8565b5060209190910151600190910180546001600160a01b0319166001600160a01b039283161790556040519085169087907f6d1e9ddb120e0e0295c197ff2adbee71d68d42386760b48b03b16f0214c471e690600090a3505050505050565b60008060008061109085611b03565b6040805160008152602081018083528b905260ff8316918101919091526060810184905260808101839052929550909350915060019060a0016020604051602081039080840390855afa1580156110eb573d6000803e3d6000fd5b5050506020604051035193505050505b92915050565b6000828152600260205260408082208151606081019092528054829082906111289061308d565b80601f01602080910402602001604051908101604052809291908181526020018280546111549061308d565b80156111a15780601f10611176576101008083540402835291602001916111a1565b820191906000526020600020905b81548152906001019060200180831161118457829003601f168201915b505050918352505060018201546001600160a01b03166020820152600290910154604090910152905060006111e1610ca96000546001600160a01b031690565b90506001811515146112055760405162461bcd60e51b815260040161064c90612ea8565b60008481526002602052604081209061121e828261256c565b506001810180546001600160a01b0319169055600060029091015550505050565b6000858152600260205260408082208151606081019092528054829082906112669061308d565b80601f01602080910402602001604051908101604052809291908181526020018280546112929061308d565b80156112df5780601f106112b4576101008083540402835291602001916112df565b820191906000526020600020905b8154815290600101906020018083116112c257829003601f168201915b505050918352505060018201546001600160a01b031660208083019190915260029092015460409182015260008881526003909252808220815180830190925280549394509192909190829082906113369061308d565b80601f01602080910402602001604051908101604052809291908181526020018280546113629061308d565b80156113af5780601f10611384576101008083540402835291602001916113af565b820191906000526020600020905b81548152906001019060200180831161139257829003601f168201915b5050509183525050600191909101546001600160a01b0316602090910152905060006113da4261060d565b60ff169050806001141561147c5760405162461bcd60e51b815260206004820152605e60248201527f546f64617920526174696f6e2077696c6c206e6f742062652070726f7669646560448201527f642e2e2e204b696e646c7920566973697420546f6d6f72726f7720746f204c6160648201527f737420646179206f6620746865204d6f6e746820466f7220526174696f6e0000608482015260a40161064c565b60208301516001600160a01b03166114a65760405162461bcd60e51b815260040161064c90612f14565b60208201516001600160a01b03166114d05760405162461bcd60e51b815260040161064c90612f14565b600061151a84602001518a8a8a8a8080601f0160208091040260200160405190810160405280939291908181526020018383808284376000920191909152508c9250611f50915050565b905060018115151461153e5760405162461bcd60e51b815260040161064c90612ea8565b60408085015160008a81526004602052828120925191929091611564908b908b90612cfa565b9081526020016040518091039020549050600060018a8a604051611589929190612cfa565b9081526020016040518091039020600201549050808210156116065760405162461bcd60e51b815260206004820152603060248201527f507572636861736564204974656d206e6f7420617661696c61626c6520696e2060448201526f07468697320526174696f6e2053686f760841b606482015260840161064c565b60055460005b81811015611712578d6005828154811061162857611628613164565b9060005260206000209060060201600001541415611700578b8b604051602001611653929190612cfa565b6040516020818303038152906040528051906020012060001c6005828154811061167f5761167f613164565b90600052602060002090600602016002016040516020016116a09190612d0a565b6040516020818303038152906040528051906020012060001c14156117005760405162461bcd60e51b8152602060048201526016602482015275416c726561647920707572636861736564204974656d60501b604482015260640161064c565b8061170a816130c8565b91505061160c565b50836118205760056040518060c001604052808f81526020018e81526020018d8d8080601f016020809104026020016040519081016040528093929190818152602001838380828437600081840152601f19601f8201169050808301925050505050505081526020014281526020018460018f8f604051611794929190612cfa565b908152604051908190036020019020546117ae9190613004565b8152602090810184905282546001818101855560009485529382902083516006909202019081558282015193810193909355604082015180519293926117fa92600285019201906124e8565b50606082015181600301556080820151816004015560a082015181600501555050611926565b60056040518060c001604052808f81526020018e81526020018d8d8080601f016020809104026020016040519081016040528093929190818152602001838380828437600081840152601f19601f8201169050808301925050505050505081526020014281526020018460018f8f60405161189c929190612cfa565b9081526020016040518091039020600101546118b89190613004565b81526020908101849052825460018181018555600094855293829020835160069092020190815582820151938101939093556040820151805192939261190492600285019201906124e8565b50606082015181600301556080820151816004015560a0820151816005015550505b81600460008f81526020019081526020016000208c8c60405161194a929190612cfa565b908152602001604051809103902060008282546119679190613046565b909155505060405181908e907f7eb1020e97afad99e320f34a8ef5080a58858f710db2cc036707851c781e947290600090a350505050505050505050505050565b6000838152600260205260408082208151606081019092528054829082906119cf9061308d565b80601f01602080910402602001604051908101604052809291908181526020018280546119fb9061308d565b8015611a485780601f10611a1d57610100808354040283529160200191611a48565b820191906000526020600020905b815481529060010190602001808311611a2b57829003601f168201915b505050918352505060018201546001600160a01b039081166020808401919091526002909301546040909201919091529082015191925016611a9c5760405162461bcd60e51b815260040161064c90612f14565b8281526040808201839052600085815260026020908152919020825180518493611aca9284929101906124e8565b5060208201516001820180546001600160a01b0319166001600160a01b0390921691909117905560409091015160029091015550505050565b60008060008351604114611b595760405162461bcd60e51b815260206004820152601860248201527f696e76616c6964207369676e6174757265206c656e6774680000000000000000604482015260640161064c565b50505060208101516040820151606090920151909260009190911a90565b60058181548110611b8757600080fd5b9060005260206000209060060201600091509050806000015490806001015490806002018054611bb69061308d565b80601f0160208091040260200160405190810160405280929190818152602001828054611be29061308d565b8015611c2f5780601f10611c0457610100808354040283529160200191611c2f565b820191906000526020600020905b815481529060010190602001808311611c1257829003601f168201915b5050505050908060030154908060040154908060050154905086565b6000611c6b611c626000546001600160a01b031690565b87878786610ea9565b9050600181151514611c8f5760405162461bcd60e51b815260040161064c90612ea8565b600086815260026020526040808220815160608101909252805482908290611cb69061308d565b80601f0160208091040260200160405190810160405280929190818152602001828054611ce29061308d565b8015611d2f5780601f10611d0457610100808354040283529160200191611d2f565b820191906000526020600020905b815481529060010190602001808311611d1257829003601f168201915b505050918352505060018201546001600160a01b039081166020808401919091526002938401546040938401528a85529089168482015283820188905260008b815292815291208251805193945084939192611d90928492909101906124e8565b5060208201516001820180546001600160a01b0319166001600160a01b0392831617905560409283015160029092019190915590519086169088907fad5e083d1dcaabaf848247e2de34e882f48294835689a36adc9eb2fdb5a6c46490600090a350505050505050565b6000546001600160a01b03163314611e245760405162461bcd60e51b815260040161064c90612edf565b6000611e2f4261060d565b60ff16905080600114611e945760405162461bcd60e51b815260206004820152602760248201527f546f646179206973206e6f742074686520666972737420446179206f662074686044820152660ca409adedce8d60cb1b606482015260840161064c565b611ea0600560006125a6565b50565b600360205260009081526040902080548190611ebe9061308d565b80601f0160208091040260200160405190810160405280929190818152602001828054611eea9061308d565b8015611f375780601f10611f0c57610100808354040283529160200191611f37565b820191906000526020600020905b815481529060010190602001808311611f1a57829003601f168201915b505050600190930154919250506001600160a01b031682565b600080610eb78686866104ef565b6000546001600160a01b03163314611f885760405162461bcd60e51b815260040161064c90612edf565b6001600160a01b038116611fed5760405162461bcd60e51b815260206004820152602660248201527f4f776e61626c653a206e6577206f776e657220697320746865207a65726f206160448201526564647265737360d01b606482015260840161064c565b611ea0816121de565b6040805160e081018252600080825260208201819052918101829052606081018290526080810182905260a0810182905260c0810182905290808061203a8561222e565b61ffff16845261204b6107b2612323565b845161205a9061ffff16612323565b6120649190613046565b9150612074826301e28500613004565b61207e9084612fd8565b9250816107b285600001516120939190613023565b61ffff166120a19190613046565b6120af906301e13380613004565b6120b99084612fd8565b92506000600191505b600c8260ff161161212a576120db828660000151612368565b6120eb9060ff1662015180613004565b9050856120f88583612fd8565b111561210c5760ff8216602086015261212a565b6121168185612fd8565b935081612122816130e3565b9250506120c2565b600191505b61214185602001518660000151612368565b60ff168260ff1611612190578561215b8562015180612fd8565b111561216f5760ff82166040860152612190565b61217c6201518085612fd8565b935081612188816130e3565b92505061212f565b6121998661242e565b60ff1660608601526121aa86612452565b60ff1660808601526121bb86612460565b60ff1660a08601526121cc8661246d565b60ff1660c08601525092949350505050565b600080546001600160a01b038381166001600160a01b0319831681178455604051919092169283917f8be0079c531659141344cd1fd0a4f28419497f9722a3daafe3b4186f6b6457e09190a35050565b60008080806122416301e1338086612ff0565b61224d906107b2612fd8565b915061225a6107b2612323565b6122678361ffff16612323565b6122719190613046565b9050612281816301e28500613004565b61228b9084612fd8565b92508061229a6107b284613023565b61ffff166122a89190613046565b6122b6906301e13380613004565b6122c09084612fd8565b92505b8483111561231b576122de6122d9600184613023565b612489565b156122f8576122f16301e2850084613046565b9250612309565b6123066301e1338084613046565b92505b612314600183613023565b91506122c3565b509392505050565b6000612330600183613046565b915061233e61019083612ff0565b612349606484612ff0565b612354600485612ff0565b61235e9190613046565b6110fb9190612fd8565b60008260ff166001148061237f57508260ff166003145b8061238d57508260ff166005145b8061239b57508260ff166007145b806123a957508260ff166008145b806123b757508260ff16600a145b806123c557508260ff16600c145b156123d25750601f6110fb565b8260ff16600414806123e757508260ff166006145b806123f557508260ff166009145b8061240357508260ff16600b145b156124105750601e6110fb565b61241982612489565b156124265750601d6110fb565b50601c6110fb565b60006018603c61243e8185612ff0565b6124489190612ff0565b6110fb9190613124565b6000603c6124488184612ff0565b60006110fb603c83613124565b6000600761247e6201518084612ff0565b612448906004612fd8565b6000612496600483613103565b61ffff16156124a757506000919050565b6124b2606483613103565b61ffff16156124c357506001919050565b6124cf61019083613103565b61ffff16156124e057506000919050565b506001919050565b8280546124f49061308d565b90600052602060002090601f016020900481019282612516576000855561255c565b82601f1061252f57805160ff191683800117855561255c565b8280016001018555821561255c579182015b8281111561255c578251825591602001919060010190612541565b506125689291506125c7565b5090565b5080546125789061308d565b6000825580601f10612588575050565b601f016020900490600052602060002090810190611ea091906125c7565b5080546000825560060290600052602060002090810190611ea091906125dc565b5b8082111561256857600081556001016125c8565b80821115612568576000808255600182018190556125fd600283018261256c565b506000600382018190556004820181905560058201556006016125dc565b80356001600160a01b038116811461263257600080fd5b919050565b60008083601f84011261264957600080fd5b5081356001600160401b0381111561266057600080fd5b6020830191508360208260051b850101111561267b57600080fd5b9250929050565b600082601f83011261269357600080fd5b81356001600160401b03808211156126ad576126ad61317a565b604051601f8301601f19908116603f011681019082821181831017156126d5576126d561317a565b816040528381528660208588010111156126ee57600080fd5b836020870160208301376000602085830101528094505050505092915050565b60008083601f84011261272057600080fd5b5081356001600160401b0381111561273757600080fd5b60208301915083602082850101111561267b57600080fd5b60006020828403121561276157600080fd5b61276a8261261b565b9392505050565b600080600080600060a0868803121561278957600080fd5b6127928661261b565b94506020860135935060408601356001600160401b03808211156127b557600080fd5b6127c189838a01612682565b94506127cf6060890161261b565b935060808801359150808211156127e557600080fd5b506127f288828901612682565b9150509295509295909350565b600080600080600060a0868803121561281757600080fd5b6128208661261b565b9450602086013593506040860135925060608601356001600160401b038082111561284a57600080fd5b6127cf89838a01612682565b6000806000806000806000806080898b03121561287257600080fd5b88356001600160401b038082111561288957600080fd5b6128958c838d01612637565b909a50985060208b01359150808211156128ae57600080fd5b6128ba8c838d01612637565b909850965060408b01359150808211156128d357600080fd5b6128df8c838d01612637565b909650945060608b01359150808211156128f857600080fd5b506129058b828c01612637565b999c989b5096995094979396929594505050565b60006020828403121561292b57600080fd5b5035919050565b6000806040838503121561294557600080fd5b8235915060208301356001600160401b0381111561296257600080fd5b61296e85828601612682565b9150509250929050565b60006020828403121561298a57600080fd5b81356001600160401b038111156129a057600080fd5b6129ac84828501612682565b949350505050565b60008060008060008060a087890312156129cd57600080fd5b86356001600160401b038111156129e357600080fd5b6129ef89828a0161270e565b909a90995060208901359860408101359850606081013597506080013595509350505050565b600080600080600060608688031215612a2d57600080fd5b8535945060208601356001600160401b0380821115612a4b57600080fd5b612a5789838a01612637565b90965094506040880135915080821115612a7057600080fd5b50612a7d88828901612637565b969995985093965092949392505050565b600080600060608486031215612aa357600080fd5b8335925060208401356001600160401b03811115612ac057600080fd5b612acc86828701612682565b925050612adb6040850161261b565b90509250925092565b60008060008060808587031215612afa57600080fd5b8435935060208501356001600160401b0380821115612b1857600080fd5b612b2488838901612682565b9450612b326040880161261b565b93506060870135915080821115612b4857600080fd5b50612b5587828801612682565b91505092959194509250565b600080600080600060a08688031215612b7957600080fd5b8535945060208601356001600160401b0380821115612b9757600080fd5b612ba389838a01612682565b9550612bb16040890161261b565b94506060880135935060808801359150808211156127e557600080fd5b600080600060608486031215612be357600080fd5b8335925060208401356001600160401b03811115612c0057600080fd5b612c0c86828701612682565b925050604084013590509250925092565b600080600080600060808688031215612c3557600080fd5b853594506020860135935060408601356001600160401b0380821115612c5a57600080fd5b612c6689838a0161270e565b909550935060608801359150808211156127e557600080fd5b600080600060608486031215612c9457600080fd5b833592506020840135915060408401356001600160401b03811115612cb857600080fd5b612cc486828701612682565b9150509250925092565b60008151808452612ce681602086016020860161305d565b601f01601f19169290920160200192915050565b8183823760009101908152919050565b600080835481600182811c915080831680612d2657607f831692505b6020808410821415612d4657634e487b7160e01b86526022600452602486fd5b818015612d5a5760018114612d6b57612d98565b60ff19861689528489019650612d98565b60008a81526020902060005b86811015612d905781548b820152908501908301612d77565b505084890196505b509498975050505050505050565b83815260008351612dbe81602085016020880161305d565b60609390931b6bffffffffffffffffffffffff1916602092909301918201929092526034019392505050565b83815282602082015260008251612e0881604085016020870161305d565b91909101604001949350505050565b604081528260408201528284606083013760006060848301015260006060601f19601f8601168301019050826020830152949350505050565b604081526000612e636040830185612cce565b905060018060a01b03831660208301529392505050565b606081526000612e8d6060830186612cce565b6001600160a01b039490941660208301525060400152919050565b60208082526017908201527f7369676e617475726520646f65736e6f74206d61746368000000000000000000604082015260600190565b6020808252818101527f4f776e61626c653a2063616c6c6572206973206e6f7420746865206f776e6572604082015260600190565b60208082526021908201527f7468697320526174696f6e2043617264204e6f20646f65736e6f7420657869736040820152601d60fa1b606082015260800190565b86815285602082015260c060408201526000612f7460c0830187612cce565b606083019590955250608081019290925260a0909101529392505050565b6000808335601e19843603018112612fa957600080fd5b8301803591506001600160401b03821115612fc357600080fd5b60200191503681900382131561267b57600080fd5b60008219821115612feb57612feb613138565b500190565b600082612fff57612fff61314e565b500490565b600081600019048311821515161561301e5761301e613138565b500290565b600061ffff8381169083168181101561303e5761303e613138565b039392505050565b60008282101561305857613058613138565b500390565b60005b83811015613078578181015183820152602001613060565b83811115613087576000848401525b50505050565b600181811c908216806130a157607f821691505b602082108114156130c257634e487b7160e01b600052602260045260246000fd5b50919050565b60006000198214156130dc576130dc613138565b5060010190565b600060ff821660ff8114156130fa576130fa613138565b60010192915050565b600061ffff808416806131185761311861314e565b92169190910692915050565b6000826131335761313361314e565b500690565b634e487b7160e01b600052601160045260246000fd5b634e487b7160e01b600052601260045260246000fd5b634e487b7160e01b600052603260045260246000fd5b634e487b7160e01b600052604160045260246000fdfea2646970667358221220169284a8aa450ac4a545986c229063d94425b2aa0ba82830ed82d760bb7dfa4c64736f6c63430008070033",
  "immutableReferences": {},
  "source": "// SPDX-License-Identifier: MIT\r\n\r\nimport \"./item.sol\";\r\nimport \"./citizen.sol\";\r\nimport \"./rationShop.sol\";\r\nimport \"./dateTime.sol\";\r\n\r\npragma solidity ^0.8.7;\r\n\r\ncontract rationDistribution is item,citizen,rationShop,dateTime{\r\n    \r\n    struct rationDistributionToPublic{\r\n        uint rationCardNo;\r\n        uint rationShopNo;\r\n        string purchasedItem;\r\n        uint deliveryTime;\r\n        uint price;\r\n        uint receiptNo;\r\n    }\r\n    \r\n    mapping(uint => mapping(string => uint))public goods;\r\n    rationDistributionToPublic[] public rationDelivery;\r\n    event StoreItemToRationShop(uint indexed rationShopId,string itemName,uint weight);\r\n    event RationDelivery(uint indexed rationCardNo,uint indexed ReceiptNo);\r\n\r\n    function addItemToRationShop(uint _rationShopNo, string[] calldata _itemName,uint[] calldata _weight) public onlyOwner{\r\n        uint len = _weight.length;\r\n        require(_itemName.length == len,\"No of item name is not equal to no of Weight\");\r\n        for(uint i; i<len ; i++){\r\n            goods[_rationShopNo][_itemName[i]] += _weight[i];\r\n            emit StoreItemToRationShop(_rationShopNo,_itemName[i],_weight[i]);\r\n        }\r\n    }\r\n    function deleteRationDetails() public onlyOwner{\r\n\t    uint Todaydate;\t    \r\n\t    Todaydate=getDay(block.timestamp);\r\n        require(Todaydate==1,\"Today is not the first Day of the Month\");\r\n            delete rationDelivery;\r\n\t} \r\n\r\n    function rationDeliveryToCitizen(uint _rationCardNo,uint _rationShopNo,string calldata _itemName,bytes memory _signature)public {\r\n        citizenDetail memory _citizen = user[_rationCardNo];\r\n        rationShopDetail memory _shop = shop[_rationShopNo];\r\n        //registerItem memory buying = items[_itemName];\r\n        uint Todaydate=getDay(block.timestamp);\r\n\t    require(Todaydate!=1,\"Today Ration will not be provided... Kindly Visit Tomorrow to Last day of the Month For Ration\");\r\n        require(_citizen.wallet != address(0),\"this Ration Card No doesnot exist\");        \r\n        require(_shop.wallet != address(0),\"this Ration Card No doesnot exist\");\r\n        (bool _status) = verifyPurchase(_citizen.wallet, _rationCardNo,_rationShopNo,_itemName,_signature);\r\n        require(_status == true,\"signature doesnot match\");\r\n        uint _financialStatus = _citizen.financialStatus;\r\n        uint availableGoods = goods[_rationShopNo][_itemName];\r\n        uint _weight = items[_itemName].weight;\r\n        require(availableGoods >= _weight,\"Purchased Item not available in this Ration Shop\");\r\n        uint len = rationDelivery.length;      \r\n        for(uint i; i<len; i++){\r\n            if(rationDelivery[i].rationCardNo == _rationCardNo){\r\n                require(uint(keccak256(abi.encodePacked(rationDelivery[i].purchasedItem))) != uint(keccak256(abi.encodePacked(_itemName))),\"Already purchased Item\");\r\n            }  \r\n        }\r\n        if(_financialStatus == 0){            \r\n            rationDelivery.push(rationDistributionToPublic(_rationCardNo, _rationShopNo,_itemName,block.timestamp,items[_itemName].bplPrice * _weight,len));\r\n        }\r\n        else{\r\n            rationDelivery.push(rationDistributionToPublic(_rationCardNo, _rationShopNo,_itemName,block.timestamp,items[_itemName].aplPrice * _weight,len));\r\n        }\r\n        goods[_rationCardNo][_itemName] -= _weight;\r\n        emit RationDelivery(_rationCardNo,len);\r\n    }\r\n    \r\n}",
  "sourcePath": "C:\\Users\\RAJDEEP\\Desktop\\JOB\\Hackathon\\EthForAll-2023\\contracts\\rationDistribution.sol",
  "compiler": {
    "name": "solc",
    "version": "0.8.7+commit.e28d00a7.Emscripten.clang"
  },
  "schemaVersion": "3.4.3",
  "updatedAt": "2023-02-19T16:59:04.552Z",
  "networkType": "ethereum",
  "devdoc": {
    "kind": "dev",
    "methods": {
      "owner()": {
        "details": "Returns the address of the current owner."
      },
      "renounceOwnership()": {
        "details": "Leaves the contract without owner. It will not be possible to call `onlyOwner` functions anymore. Can only be called by the current owner. NOTE: Renouncing ownership will leave the contract without an owner, thereby removing any functionality that is only available to the owner."
      },
      "transferOwnership(address)": {
        "details": "Transfers ownership of the contract to a new account (`newOwner`). Can only be called by the current owner."
      }
    },
    "version": 1
  },
  "userdoc": {
    "kind": "user",
    "methods": {},
    "version": 1
  }
}