{
  "contractName": "rationShop",
  "abi": [
    {
      "anonymous": false,
      "inputs": [
        {
          "indexed": true,
          "internalType": "address",
          "name": "previousOwner",
          "type": "address"
        },
        {
          "indexed": true,
          "internalType": "address",
          "name": "newOwner",
          "type": "address"
        }
      ],
      "name": "OwnershipTransferred",
      "type": "event"
    },
    {
      "anonymous": false,
      "inputs": [
        {
          "indexed": true,
          "internalType": "uint256",
          "name": "RationShopNo",
          "type": "uint256"
        },
        {
          "indexed": true,
          "internalType": "address",
          "name": "wallet",
          "type": "address"
        }
      ],
      "name": "rationShopRegistration",
      "type": "event"
    },
    {
      "inputs": [
        {
          "internalType": "bytes32",
          "name": "_messageHash",
          "type": "bytes32"
        }
      ],
      "name": "getEthSignedMessageHash",
      "outputs": [
        {
          "internalType": "bytes32",
          "name": "",
          "type": "bytes32"
        }
      ],
      "stateMutability": "pure",
      "type": "function"
    },
    {
      "inputs": [
        {
          "internalType": "bytes32",
          "name": "_messageHash",
          "type": "bytes32"
        }
      ],
      "name": "getEthSignedMessageHashForPurchase",
      "outputs": [
        {
          "internalType": "bytes32",
          "name": "",
          "type": "bytes32"
        }
      ],
      "stateMutability": "pure",
      "type": "function"
    },
    {
      "inputs": [
        {
          "internalType": "uint256",
          "name": "_identityNo",
          "type": "uint256"
        },
        {
          "internalType": "string",
          "name": "ipfsCID",
          "type": "string"
        },
        {
          "internalType": "address",
          "name": "_wallet",
          "type": "address"
        }
      ],
      "name": "getMessageHash",
      "outputs": [
        {
          "internalType": "bytes32",
          "name": "",
          "type": "bytes32"
        }
      ],
      "stateMutability": "pure",
      "type": "function"
    },
    {
      "inputs": [
        {
          "internalType": "uint256",
          "name": "_rationCardNo",
          "type": "uint256"
        },
        {
          "internalType": "uint256",
          "name": "_rationShopNo",
          "type": "uint256"
        },
        {
          "internalType": "string",
          "name": "_itemName",
          "type": "string"
        }
      ],
      "name": "getMessageHashForPurchase",
      "outputs": [
        {
          "internalType": "bytes32",
          "name": "",
          "type": "bytes32"
        }
      ],
      "stateMutability": "pure",
      "type": "function"
    },
    {
      "inputs": [],
      "name": "owner",
      "outputs": [
        {
          "internalType": "address",
          "name": "",
          "type": "address"
        }
      ],
      "stateMutability": "view",
      "type": "function"
    },
    {
      "inputs": [
        {
          "internalType": "bytes32",
          "name": "_ethSignedMessageHash",
          "type": "bytes32"
        },
        {
          "internalType": "bytes",
          "name": "_signature",
          "type": "bytes"
        }
      ],
      "name": "recoverSigner",
      "outputs": [
        {
          "internalType": "address",
          "name": "",
          "type": "address"
        }
      ],
      "stateMutability": "pure",
      "type": "function"
    },
    {
      "inputs": [],
      "name": "renounceOwnership",
      "outputs": [],
      "stateMutability": "nonpayable",
      "type": "function"
    },
    {
      "inputs": [
        {
          "internalType": "uint256",
          "name": "",
          "type": "uint256"
        }
      ],
      "name": "shop",
      "outputs": [
        {
          "internalType": "string",
          "name": "rationIPFSLink",
          "type": "string"
        },
        {
          "internalType": "address",
          "name": "wallet",
          "type": "address"
        }
      ],
      "stateMutability": "view",
      "type": "function"
    },
    {
      "inputs": [
        {
          "internalType": "bytes",
          "name": "_sig",
          "type": "bytes"
        }
      ],
      "name": "splitSignature",
      "outputs": [
        {
          "internalType": "bytes32",
          "name": "r",
          "type": "bytes32"
        },
        {
          "internalType": "bytes32",
          "name": "s",
          "type": "bytes32"
        },
        {
          "internalType": "uint8",
          "name": "v",
          "type": "uint8"
        }
      ],
      "stateMutability": "pure",
      "type": "function"
    },
    {
      "inputs": [
        {
          "internalType": "address",
          "name": "newOwner",
          "type": "address"
        }
      ],
      "name": "transferOwnership",
      "outputs": [],
      "stateMutability": "nonpayable",
      "type": "function"
    },
    {
      "inputs": [
        {
          "internalType": "address",
          "name": "_signer",
          "type": "address"
        },
        {
          "internalType": "uint256",
          "name": "_identityNo",
          "type": "uint256"
        },
        {
          "internalType": "string",
          "name": "ipfsCID",
          "type": "string"
        },
        {
          "internalType": "address",
          "name": "_wallet",
          "type": "address"
        },
        {
          "internalType": "bytes",
          "name": "_signature",
          "type": "bytes"
        }
      ],
      "name": "verify",
      "outputs": [
        {
          "internalType": "bool",
          "name": "",
          "type": "bool"
        }
      ],
      "stateMutability": "pure",
      "type": "function"
    },
    {
      "inputs": [
        {
          "internalType": "address",
          "name": "_signer",
          "type": "address"
        },
        {
          "internalType": "uint256",
          "name": "_rationCardNo",
          "type": "uint256"
        },
        {
          "internalType": "uint256",
          "name": "_rationShopNo",
          "type": "uint256"
        },
        {
          "internalType": "string",
          "name": "_itemName",
          "type": "string"
        },
        {
          "internalType": "bytes",
          "name": "_signature",
          "type": "bytes"
        }
      ],
      "name": "verifyPurchase",
      "outputs": [
        {
          "internalType": "bool",
          "name": "",
          "type": "bool"
        }
      ],
      "stateMutability": "pure",
      "type": "function"
    },
    {
      "inputs": [
        {
          "internalType": "uint256",
          "name": "_rationShopNo",
          "type": "uint256"
        },
        {
          "internalType": "string",
          "name": "_rationIPFSLink",
          "type": "string"
        },
        {
          "internalType": "address",
          "name": "_wallet",
          "type": "address"
        },
        {
          "internalType": "bytes",
          "name": "_signature",
          "type": "bytes"
        }
      ],
      "name": "registerRationShop",
      "outputs": [],
      "stateMutability": "nonpayable",
      "type": "function"
    },
    {
      "inputs": [
        {
          "internalType": "uint256",
          "name": "_rationShopNo",
          "type": "uint256"
        },
        {
          "internalType": "string",
          "name": "_rationIPFSLink",
          "type": "string"
        }
      ],
      "name": "updateRationShopDetail",
      "outputs": [],
      "stateMutability": "nonpayable",
      "type": "function"
    },
    {
      "inputs": [
        {
          "internalType": "uint256",
          "name": "_rationShopNo",
          "type": "uint256"
        },
        {
          "internalType": "bytes",
          "name": "_signature",
          "type": "bytes"
        }
      ],
      "name": "removeRationShop",
      "outputs": [],
      "stateMutability": "nonpayable",
      "type": "function"
    }
  ],
  "bytecode": "0x608060405234801561001057600080fd5b5061001a3361001f565b61006f565b600080546001600160a01b038381166001600160a01b0319831681178455604051919092169283917f8be0079c531659141344cd1fd0a4f28419497f9722a3daafe3b4186f6b6457e09190a35050565b6110ba8061007e6000396000f3fe608060405234801561001057600080fd5b50600436106100f55760003560e01c8063900ab19f11610097578063da69c08311610066578063da69c08314610215578063e737625514610236578063f2fde38b14610249578063fa5408011461013357600080fd5b8063900ab19f1461019b5780639034228d146101be57806397aba7f9146101d1578063a7bb5803146101e457600080fd5b80637056bbff116100d35780637056bbff14610146578063715018a61461015b5780637d16abdb146101635780638da5cb5b1461017657600080fd5b806301b4cb25146100fa57806353600df11461012057806364cbd2e214610133575b600080fd5b61010d610108366004610e29565b61025c565b6040519081526020015b60405180910390f35b61010d61012e366004610efe565b610292565b61010d610141366004610d8c565b6102a9565b610159610154366004610da5565b6102fc565b005b610159610475565b610159610171366004610da5565b6104db565b6000546001600160a01b03165b6040516001600160a01b039091168152602001610117565b6101ae6101a9366004610ca5565b610641565b6040519015158152602001610117565b6101596101cc366004610e80565b610688565b6101836101df366004610da5565b610842565b6101f76101f2366004610dec565b6108c1565b60408051938452602084019290925260ff1690820152606001610117565b610228610223366004610d8c565b610935565b604051610117929190610fbf565b6101ae610244366004610d34565b6109e2565b610159610257366004610c83565b6109f0565b600083838360405160200161027393929190610f4e565b6040516020818303038152906040528051906020012090509392505050565b600083838360405160200161027393929190610f92565b6040517f19457468657265756d205369676e6564204d6573736167650a333200000000006020820152603b8101829052600090605b01604051602081830303815290604052805190602001209050919050565b600082815260016020526040808220815180830190925280548290829061032290611033565b80601f016020809104026020016040519081016040528092919081815260200182805461034e90611033565b801561039b5780601f106103705761010080835404028352916020019161039b565b820191906000526020600020905b81548152906001019060200180831161037e57829003601f168201915b5050509183525050600191909101546001600160a01b03908116602092830152908201519192501661041e5760405162461bcd60e51b815260206004820152602160248201527f7468697320526174696f6e2043617264204e6f20646f65736e6f7420657869736044820152601d60fa1b60648201526084015b60405180910390fd5b8181526000838152600160209081526040909120825180518493610446928492910190610b0b565b5060209190910151600190910180546001600160a01b0319166001600160a01b03909216919091179055505050565b6000546001600160a01b031633146104cf5760405162461bcd60e51b815260206004820181905260248201527f4f776e61626c653a2063616c6c6572206973206e6f7420746865206f776e65726044820152606401610415565b6104d96000610abb565b565b600082815260016020526040808220815180830190925280548290829061050190611033565b80601f016020809104026020016040519081016040528092919081815260200182805461052d90611033565b801561057a5780601f1061054f5761010080835404028352916020019161057a565b820191906000526020600020905b81548152906001019060200180831161055d57829003601f168201915b5050509183525050600191909101546001600160a01b0316602090910152905060006105c26105b16000546001600160a01b031690565b858460000151856020015187610641565b90506001811515146106105760405162461bcd60e51b81526020600482015260176024820152760e6d2cedcc2e8eae4ca40c8decae6dcdee840dac2e8c6d604b1b6044820152606401610415565b6000848152600160205260408120906106298282610b8f565b5060010180546001600160a01b031916905550505050565b60008061064f86868661025c565b9050600061065c826102a9565b9050876001600160a01b03166106728286610842565b6001600160a01b03161498975050505050505050565b60006106a861069f6000546001600160a01b031690565b86868686610641565b90506001811515146106f65760405162461bcd60e51b81526020600482015260176024820152760e6d2cedcc2e8eae4ca40c8decae6dcdee840dac2e8c6d604b1b6044820152606401610415565b600085815260016020526040808220815180830190925280548290829061071c90611033565b80601f016020809104026020016040519081016040528092919081815260200182805461074890611033565b80156107955780601f1061076a57610100808354040283529160200191610795565b820191906000526020600020905b81548152906001019060200180831161077857829003601f168201915b50505091835250506001918201546001600160a01b039081166020928301528884528716838201526000898152918152604090912082518051939450849391926107e492849290910190610b0b565b5060209190910151600190910180546001600160a01b0319166001600160a01b039283161790556040519085169087907f6d1e9ddb120e0e0295c197ff2adbee71d68d42386760b48b03b16f0214c471e690600090a3505050505050565b600080600080610851856108c1565b6040805160008152602081018083528b905260ff8316918101919091526060810184905260808101839052929550909350915060019060a0016020604051602081039080840390855afa1580156108ac573d6000803e3d6000fd5b5050604051601f190151979650505050505050565b600080600083516041146109175760405162461bcd60e51b815260206004820152601860248201527f696e76616c6964207369676e6174757265206c656e67746800000000000000006044820152606401610415565b50505060208101516040820151606090920151909260009190911a90565b60016020526000908152604090208054819061095090611033565b80601f016020809104026020016040519081016040528092919081815260200182805461097c90611033565b80156109c95780601f1061099e576101008083540402835291602001916109c9565b820191906000526020600020905b8154815290600101906020018083116109ac57829003601f168201915b505050600190930154919250506001600160a01b031682565b60008061064f868686610292565b6000546001600160a01b03163314610a4a5760405162461bcd60e51b815260206004820181905260248201527f4f776e61626c653a2063616c6c6572206973206e6f7420746865206f776e65726044820152606401610415565b6001600160a01b038116610aaf5760405162461bcd60e51b815260206004820152602660248201527f4f776e61626c653a206e6577206f776e657220697320746865207a65726f206160448201526564647265737360d01b6064820152608401610415565b610ab881610abb565b50565b600080546001600160a01b038381166001600160a01b0319831681178455604051919092169283917f8be0079c531659141344cd1fd0a4f28419497f9722a3daafe3b4186f6b6457e09190a35050565b828054610b1790611033565b90600052602060002090601f016020900481019282610b395760008555610b7f565b82601f10610b5257805160ff1916838001178555610b7f565b82800160010185558215610b7f579182015b82811115610b7f578251825591602001919060010190610b64565b50610b8b929150610bc5565b5090565b508054610b9b90611033565b6000825580601f10610bab575050565b601f016020900490600052602060002090810190610ab891905b5b80821115610b8b5760008155600101610bc6565b80356001600160a01b0381168114610bf157600080fd5b919050565b600082601f830112610c0757600080fd5b813567ffffffffffffffff80821115610c2257610c2261106e565b604051601f8301601f19908116603f01168101908282118183101715610c4a57610c4a61106e565b81604052838152866020858801011115610c6357600080fd5b836020870160208301376000602085830101528094505050505092915050565b600060208284031215610c9557600080fd5b610c9e82610bda565b9392505050565b600080600080600060a08688031215610cbd57600080fd5b610cc686610bda565b945060208601359350604086013567ffffffffffffffff80821115610cea57600080fd5b610cf689838a01610bf6565b9450610d0460608901610bda565b93506080880135915080821115610d1a57600080fd5b50610d2788828901610bf6565b9150509295509295909350565b600080600080600060a08688031215610d4c57600080fd5b610d5586610bda565b94506020860135935060408601359250606086013567ffffffffffffffff80821115610d8057600080fd5b610d0489838a01610bf6565b600060208284031215610d9e57600080fd5b5035919050565b60008060408385031215610db857600080fd5b82359150602083013567ffffffffffffffff811115610dd657600080fd5b610de285828601610bf6565b9150509250929050565b600060208284031215610dfe57600080fd5b813567ffffffffffffffff811115610e1557600080fd5b610e2184828501610bf6565b949350505050565b600080600060608486031215610e3e57600080fd5b83359250602084013567ffffffffffffffff811115610e5c57600080fd5b610e6886828701610bf6565b925050610e7760408501610bda565b90509250925092565b60008060008060808587031215610e9657600080fd5b84359350602085013567ffffffffffffffff80821115610eb557600080fd5b610ec188838901610bf6565b9450610ecf60408801610bda565b93506060870135915080821115610ee557600080fd5b50610ef287828801610bf6565b91505092959194509250565b600080600060608486031215610f1357600080fd5b8335925060208401359150604084013567ffffffffffffffff811115610f3857600080fd5b610f4486828701610bf6565b9150509250925092565b83815260008351610f66816020850160208801611003565b60609390931b6bffffffffffffffffffffffff1916602092909301918201929092526034019392505050565b83815282602082015260008251610fb0816040850160208701611003565b91909101604001949350505050565b6040815260008351806040840152610fde816060850160208801611003565b6001600160a01b0393909316602083015250601f91909101601f191601606001919050565b60005b8381101561101e578181015183820152602001611006565b8381111561102d576000848401525b50505050565b600181811c9082168061104757607f821691505b6020821081141561106857634e487b7160e01b600052602260045260246000fd5b50919050565b634e487b7160e01b600052604160045260246000fdfea264697066735822122051454a9d8f3fb4b160b2d9171dd3f476cf7adebc9ac9d055d866c3094fc45fd664736f6c63430008070033",
  "immutableReferences": {},
  "source": "// SPDX-License-Identifier: MIT\r\n\r\nimport \"./verifySignature.sol\";\r\nimport \"./Ownable.sol\";\r\n\r\npragma solidity ^0.8.7;\r\n\r\ncontract rationShop is Ownable,verifySignature{\r\n\r\n    struct rationShopDetail{\r\n        string rationIPFSLink;\r\n        address wallet;\r\n    }\r\n\r\n    mapping(uint => rationShopDetail) public shop;\r\n    event rationShopRegistration(uint indexed RationShopNo,address indexed wallet);\r\n    function registerRationShop(uint _rationShopNo, string memory _rationIPFSLink, address _wallet, bytes memory _signature) public{\r\n        (bool _status) = verify(owner(), _rationShopNo,_rationIPFSLink,_wallet,_signature);\r\n        require(_status == true,\"signature doesnot match\");\r\n        rationShopDetail memory _shop = shop[_rationShopNo];\r\n        _shop.rationIPFSLink = _rationIPFSLink;\r\n        _shop.wallet = _wallet;\r\n        shop[_rationShopNo] = _shop;\r\n        emit rationShopRegistration(_rationShopNo,_wallet);\r\n    }\r\n\r\n    function updateRationShopDetail(uint _rationShopNo, string memory _rationIPFSLink)public{\r\n        rationShopDetail memory _shop = shop[_rationShopNo];\r\n        require(_shop.wallet != address(0),\"this Ration Card No doesnot exist\");\r\n        _shop.rationIPFSLink = _rationIPFSLink;\r\n        shop[_rationShopNo] = _shop;\r\n    }\r\n\r\n    function removeRationShop(uint _rationShopNo, bytes memory _signature) public{\r\n        rationShopDetail memory _shop = shop[_rationShopNo];\r\n        (bool _status) = verify(owner(), _rationShopNo,_shop.rationIPFSLink,_shop.wallet,_signature);\r\n        require(_status == true,\"signature doesnot match\");\r\n        delete shop[_rationShopNo];\r\n    }\r\n}",
  "sourcePath": "C:\\Users\\RAJDEEP\\Desktop\\JOB\\Hackathon\\EthForAll-2023\\contracts\\rationShop.sol",
  "compiler": {
    "name": "solc",
    "version": "0.8.7+commit.e28d00a7.Emscripten.clang"
  },
  "schemaVersion": "3.4.3",
  "updatedAt": "2023-02-19T16:52:21.705Z",
  "devdoc": {
    "kind": "dev",
    "methods": {
      "owner()": {
        "details": "Returns the address of the current owner."
      },
      "renounceOwnership()": {
        "details": "Leaves the contract without owner. It will not be possible to call `onlyOwner` functions anymore. Can only be called by the current owner. NOTE: Renouncing ownership will leave the contract without an owner, thereby removing any functionality that is only available to the owner."
      },
      "transferOwnership(address)": {
        "details": "Transfers ownership of the contract to a new account (`newOwner`). Can only be called by the current owner."
      }
    },
    "version": 1
  },
  "userdoc": {
    "kind": "user",
    "methods": {},
    "version": 1
  }
}