{
  "contractName": "verifySignature",
  "abi": [
    {
      "inputs": [
        {
          "internalType": "uint256",
          "name": "_identityNo",
          "type": "uint256"
        },
        {
          "internalType": "string",
          "name": "ipfsCID",
          "type": "string"
        },
        {
          "internalType": "address",
          "name": "_wallet",
          "type": "address"
        }
      ],
      "name": "getMessageHash",
      "outputs": [
        {
          "internalType": "bytes32",
          "name": "",
          "type": "bytes32"
        }
      ],
      "stateMutability": "pure",
      "type": "function"
    },
    {
      "inputs": [
        {
          "internalType": "bytes32",
          "name": "_messageHash",
          "type": "bytes32"
        }
      ],
      "name": "getEthSignedMessageHash",
      "outputs": [
        {
          "internalType": "bytes32",
          "name": "",
          "type": "bytes32"
        }
      ],
      "stateMutability": "pure",
      "type": "function"
    },
    {
      "inputs": [
        {
          "internalType": "address",
          "name": "_signer",
          "type": "address"
        },
        {
          "internalType": "uint256",
          "name": "_identityNo",
          "type": "uint256"
        },
        {
          "internalType": "string",
          "name": "ipfsCID",
          "type": "string"
        },
        {
          "internalType": "address",
          "name": "_wallet",
          "type": "address"
        },
        {
          "internalType": "bytes",
          "name": "_signature",
          "type": "bytes"
        }
      ],
      "name": "verify",
      "outputs": [
        {
          "internalType": "bool",
          "name": "",
          "type": "bool"
        }
      ],
      "stateMutability": "pure",
      "type": "function"
    },
    {
      "inputs": [
        {
          "internalType": "uint256",
          "name": "_rationCardNo",
          "type": "uint256"
        },
        {
          "internalType": "uint256",
          "name": "_rationShopNo",
          "type": "uint256"
        },
        {
          "internalType": "string",
          "name": "_itemName",
          "type": "string"
        }
      ],
      "name": "getMessageHashForPurchase",
      "outputs": [
        {
          "internalType": "bytes32",
          "name": "",
          "type": "bytes32"
        }
      ],
      "stateMutability": "pure",
      "type": "function"
    },
    {
      "inputs": [
        {
          "internalType": "bytes32",
          "name": "_messageHash",
          "type": "bytes32"
        }
      ],
      "name": "getEthSignedMessageHashForPurchase",
      "outputs": [
        {
          "internalType": "bytes32",
          "name": "",
          "type": "bytes32"
        }
      ],
      "stateMutability": "pure",
      "type": "function"
    },
    {
      "inputs": [
        {
          "internalType": "address",
          "name": "_signer",
          "type": "address"
        },
        {
          "internalType": "uint256",
          "name": "_rationCardNo",
          "type": "uint256"
        },
        {
          "internalType": "uint256",
          "name": "_rationShopNo",
          "type": "uint256"
        },
        {
          "internalType": "string",
          "name": "_itemName",
          "type": "string"
        },
        {
          "internalType": "bytes",
          "name": "_signature",
          "type": "bytes"
        }
      ],
      "name": "verifyPurchase",
      "outputs": [
        {
          "internalType": "bool",
          "name": "",
          "type": "bool"
        }
      ],
      "stateMutability": "pure",
      "type": "function"
    },
    {
      "inputs": [
        {
          "internalType": "bytes32",
          "name": "_ethSignedMessageHash",
          "type": "bytes32"
        },
        {
          "internalType": "bytes",
          "name": "_signature",
          "type": "bytes"
        }
      ],
      "name": "recoverSigner",
      "outputs": [
        {
          "internalType": "address",
          "name": "",
          "type": "address"
        }
      ],
      "stateMutability": "pure",
      "type": "function"
    },
    {
      "inputs": [
        {
          "internalType": "bytes",
          "name": "_sig",
          "type": "bytes"
        }
      ],
      "name": "splitSignature",
      "outputs": [
        {
          "internalType": "bytes32",
          "name": "r",
          "type": "bytes32"
        },
        {
          "internalType": "bytes32",
          "name": "s",
          "type": "bytes32"
        },
        {
          "internalType": "uint8",
          "name": "v",
          "type": "uint8"
        }
      ],
      "stateMutability": "pure",
      "type": "function"
    }
  ],
  "bytecode": "0x608060405234801561001057600080fd5b50610707806100206000396000f3fe608060405234801561001057600080fd5b50600436106100885760003560e01c806397aba7f91161005b57806397aba7f9146100fc578063a7bb580314610127578063e737625514610158578063fa540801146100c657600080fd5b806301b4cb251461008d57806353600df1146100b357806364cbd2e2146100c6578063900ab19f146100d9575b600080fd5b6100a061009b366004610584565b61016b565b6040519081526020015b60405180910390f35b6100a06100c13660046105db565b6101a1565b6100a06100d43660046104e7565b6101b8565b6100ec6100e7366004610400565b61020b565b60405190151581526020016100aa565b61010f61010a366004610500565b610252565b6040516001600160a01b0390911681526020016100aa565b61013a610135366004610547565b6102d1565b60408051938452602084019290925260ff16908201526060016100aa565b6100ec61016636600461048f565b610349565b600083838360405160200161018293929190610666565b6040516020818303038152906040528051906020012090509392505050565b60008383836040516020016101829392919061069a565b6040517f19457468657265756d205369676e6564204d6573736167650a333200000000006020820152603b8101829052600090605b01604051602081830303815290604052805190602001209050919050565b60008061021986868661016b565b90506000610226826101b8565b9050876001600160a01b031661023c8286610252565b6001600160a01b03161498975050505050505050565b600080600080610261856102d1565b6040805160008152602081018083528b905260ff8316918101919091526060810184905260808101839052929550909350915060019060a0016020604051602081039080840390855afa1580156102bc573d6000803e3d6000fd5b5050604051601f190151979650505050505050565b6000806000835160411461032b5760405162461bcd60e51b815260206004820152601860248201527f696e76616c6964207369676e6174757265206c656e6774680000000000000000604482015260640160405180910390fd5b50505060208101516040820151606090920151909260009190911a90565b6000806102198686866101a1565b80356001600160a01b038116811461036e57600080fd5b919050565b600082601f83011261038457600080fd5b813567ffffffffffffffff8082111561039f5761039f6106bb565b604051601f8301601f19908116603f011681019082821181831017156103c7576103c76106bb565b816040528381528660208588010111156103e057600080fd5b836020870160208301376000602085830101528094505050505092915050565b600080600080600060a0868803121561041857600080fd5b61042186610357565b945060208601359350604086013567ffffffffffffffff8082111561044557600080fd5b61045189838a01610373565b945061045f60608901610357565b9350608088013591508082111561047557600080fd5b5061048288828901610373565b9150509295509295909350565b600080600080600060a086880312156104a757600080fd5b6104b086610357565b94506020860135935060408601359250606086013567ffffffffffffffff808211156104db57600080fd5b61045f89838a01610373565b6000602082840312156104f957600080fd5b5035919050565b6000806040838503121561051357600080fd5b82359150602083013567ffffffffffffffff81111561053157600080fd5b61053d85828601610373565b9150509250929050565b60006020828403121561055957600080fd5b813567ffffffffffffffff81111561057057600080fd5b61057c84828501610373565b949350505050565b60008060006060848603121561059957600080fd5b83359250602084013567ffffffffffffffff8111156105b757600080fd5b6105c386828701610373565b9250506105d260408501610357565b90509250925092565b6000806000606084860312156105f057600080fd5b8335925060208401359150604084013567ffffffffffffffff81111561061557600080fd5b61062186828701610373565b9150509250925092565b6000815160005b8181101561064c5760208185018101518683015201610632565b8181111561065b576000828601525b509290920192915050565b8381526000610678602083018561062b565b60609390931b6bffffffffffffffffffffffff19168352505060140192915050565b83815282602082015260006106b2604083018461062b565b95945050505050565b634e487b7160e01b600052604160045260246000fdfea264697066735822122032ddd00883d966e41c61ae4464d2228ddd82fe2b73afb30513912dbb22aa4ca964736f6c63430008070033",
  "immutableReferences": {},
  "source": "// SPDX-License-Identifier: MIT\r\npragma solidity ^0.8.7;\r\n\r\n\r\ncontract verifySignature{\r\n\r\n\tfunction getMessageHash(uint _identityNo , string memory ipfsCID, address _wallet) public pure returns(bytes32){\r\n\t\treturn keccak256(abi.encodePacked(_identityNo, ipfsCID, _wallet));\r\n\t}\r\n\r\n\tfunction getEthSignedMessageHash(bytes32 _messageHash) public pure returns(bytes32){\r\n\t\treturn keccak256(abi.encodePacked(\"\\x19Ethereum Signed Message\\n32\",_messageHash));\r\n\t}\r\n\r\n\tfunction verify(address _signer, uint _identityNo , string memory ipfsCID, address _wallet, bytes memory _signature) public pure returns(bool){\r\n\t\tbytes32 messageHash = getMessageHash(_identityNo, ipfsCID, _wallet);\r\n\t\tbytes32 ethSignedMessageHash = getEthSignedMessageHash(messageHash);\r\n\t\treturn recoverSigner(ethSignedMessageHash , _signature) == _signer;\r\n\t}\r\n\r\n\tfunction getMessageHashForPurchase(uint256 _rationCardNo,uint256 _rationShopNo,string memory _itemName) public pure returns(bytes32){\r\n\t\treturn keccak256(abi.encodePacked(_rationCardNo,_rationShopNo,_itemName));\r\n\t}\r\n\r\n\tfunction getEthSignedMessageHashForPurchase(bytes32 _messageHash) public pure returns(bytes32){\r\n\t\treturn keccak256(abi.encodePacked(\"\\x19Ethereum Signed Message\\n32\",_messageHash));\r\n\t}\r\n\r\n\tfunction verifyPurchase(address _signer,uint256 _rationCardNo,uint256 _rationShopNo,string memory _itemName, bytes memory _signature)public pure returns(bool){\r\n\t\tbytes32 messageHash = getMessageHashForPurchase(_rationCardNo,_rationShopNo,_itemName);\r\n\t\tbytes32 ethSignedMessageHash = getEthSignedMessageHashForPurchase(messageHash);\r\n\t\treturn recoverSigner(ethSignedMessageHash , _signature) == _signer;\r\n\t}\r\n\tfunction recoverSigner(bytes32 _ethSignedMessageHash , bytes memory _signature) public pure returns(address){\r\n\t\t(bytes32 r, bytes32 s, uint8 v) = splitSignature(_signature);\r\n\t\treturn ecrecover(_ethSignedMessageHash,v,r,s);\r\n\t}\r\n\r\n\tfunction splitSignature(bytes memory _sig) public pure returns(bytes32 r, bytes32 s, uint8 v){\r\n\t\trequire(_sig.length == 65, \"invalid signature length\");\r\n\t\tassembly{\r\n\t\t\tr := mload(add(_sig,32))\r\n\t\t\ts := mload(add(_sig,64))\r\n\t\t\tv := byte(0, mload(add(_sig,96)))\r\n\t\t}\r\n\t}\r\n}\r\n",
  "sourcePath": "C:\\Users\\RAJDEEP\\Desktop\\JOB\\Hackathon\\EthForAll-2023\\contracts\\verifySignature.sol",
  "compiler": {
    "name": "solc",
    "version": "0.8.7+commit.e28d00a7.Emscripten.clang"
  },
  "schemaVersion": "3.4.3",
  "updatedAt": "2023-02-19T16:52:21.737Z",
  "devdoc": {
    "kind": "dev",
    "methods": {},
    "version": 1
  },
  "userdoc": {
    "kind": "user",
    "methods": {},
    "version": 1
  }
}