{
  "contractName": "verifyCitizen",
  "abi": [
    {
      "inputs": [
        {
          "internalType": "uint256",
          "name": "_rationCardNo",
          "type": "uint256"
        },
        {
          "internalType": "string",
          "name": "_citizenIPFSLinkEnc",
          "type": "string"
        },
        {
          "internalType": "address",
          "name": "_wallet",
          "type": "address"
        }
      ],
      "name": "getMessageHash",
      "outputs": [
        {
          "internalType": "bytes32",
          "name": "",
          "type": "bytes32"
        }
      ],
      "stateMutability": "pure",
      "type": "function"
    },
    {
      "inputs": [
        {
          "internalType": "bytes32",
          "name": "_messageHash",
          "type": "bytes32"
        }
      ],
      "name": "getEthSignedMessageHash",
      "outputs": [
        {
          "internalType": "bytes32",
          "name": "",
          "type": "bytes32"
        }
      ],
      "stateMutability": "pure",
      "type": "function"
    },
    {
      "inputs": [
        {
          "internalType": "address",
          "name": "_signer",
          "type": "address"
        },
        {
          "internalType": "uint256",
          "name": "_rationCardNo",
          "type": "uint256"
        },
        {
          "internalType": "string",
          "name": "_citizenIPFSLinkEnc",
          "type": "string"
        },
        {
          "internalType": "address",
          "name": "_wallet",
          "type": "address"
        },
        {
          "internalType": "bytes",
          "name": "_signature",
          "type": "bytes"
        }
      ],
      "name": "verify",
      "outputs": [
        {
          "internalType": "bool",
          "name": "",
          "type": "bool"
        }
      ],
      "stateMutability": "pure",
      "type": "function"
    },
    {
      "inputs": [
        {
          "internalType": "bytes32",
          "name": "_ethSignedMessageHash",
          "type": "bytes32"
        },
        {
          "internalType": "bytes",
          "name": "_signature",
          "type": "bytes"
        }
      ],
      "name": "recoverSigner",
      "outputs": [
        {
          "internalType": "address",
          "name": "",
          "type": "address"
        }
      ],
      "stateMutability": "pure",
      "type": "function"
    },
    {
      "inputs": [
        {
          "internalType": "bytes",
          "name": "_sig",
          "type": "bytes"
        }
      ],
      "name": "splitSignature",
      "outputs": [
        {
          "internalType": "bytes32",
          "name": "r",
          "type": "bytes32"
        },
        {
          "internalType": "bytes32",
          "name": "s",
          "type": "bytes32"
        },
        {
          "internalType": "uint8",
          "name": "v",
          "type": "uint8"
        }
      ],
      "stateMutability": "pure",
      "type": "function"
    }
  ],
  "bytecode": "0x608060405234801561001057600080fd5b506105b8806100206000396000f3fe608060405234801561001057600080fd5b50600436106100575760003560e01c806301b4cb251461005c578063900ab19f1461008257806397aba7f9146100a5578063a7bb5803146100d0578063fa54080114610101575b600080fd5b61006f61006a3660046104b0565b610114565b6040519081526020015b60405180910390f35b610095610090366004610384565b61014a565b6040519015158152602001610079565b6100b86100b336600461042c565b610191565b6040516001600160a01b039091168152602001610079565b6100e36100de366004610473565b610210565b60408051938452602084019290925260ff1690820152606001610079565b61006f61010f366004610413565b610288565b600083838360405160200161012b93929190610507565b6040516020818303038152906040528051906020012090509392505050565b600080610158868686610114565b9050600061016582610288565b9050876001600160a01b031661017b8286610191565b6001600160a01b03161498975050505050505050565b6000806000806101a085610210565b6040805160008152602081018083528b905260ff8316918101919091526060810184905260808101839052929550909350915060019060a0016020604051602081039080840390855afa1580156101fb573d6000803e3d6000fd5b5050604051601f190151979650505050505050565b6000806000835160411461026a5760405162461bcd60e51b815260206004820152601860248201527f696e76616c6964207369676e6174757265206c656e6774680000000000000000604482015260640160405180910390fd5b50505060208101516040820151606090920151909260009190911a90565b6040517f19457468657265756d205369676e6564204d6573736167650a333200000000006020820152603b8101829052600090605b01604051602081830303815290604052805190602001209050919050565b80356001600160a01b03811681146102f257600080fd5b919050565b600082601f83011261030857600080fd5b813567ffffffffffffffff808211156103235761032361056c565b604051601f8301601f19908116603f0116810190828211818310171561034b5761034b61056c565b8160405283815286602085880101111561036457600080fd5b836020870160208301376000602085830101528094505050505092915050565b600080600080600060a0868803121561039c57600080fd5b6103a5866102db565b945060208601359350604086013567ffffffffffffffff808211156103c957600080fd5b6103d589838a016102f7565b94506103e3606089016102db565b935060808801359150808211156103f957600080fd5b50610406888289016102f7565b9150509295509295909350565b60006020828403121561042557600080fd5b5035919050565b6000806040838503121561043f57600080fd5b82359150602083013567ffffffffffffffff81111561045d57600080fd5b610469858286016102f7565b9150509250929050565b60006020828403121561048557600080fd5b813567ffffffffffffffff81111561049c57600080fd5b6104a8848285016102f7565b949350505050565b6000806000606084860312156104c557600080fd5b83359250602084013567ffffffffffffffff8111156104e357600080fd5b6104ef868287016102f7565b9250506104fe604085016102db565b90509250925092565b8381526000835160005b8181101561052d57602081870181015185830182015201610511565b8181111561053f576000602083860101525b5060609390931b6bffffffffffffffffffffffff1916602092909301918201929092526034019392505050565b634e487b7160e01b600052604160045260246000fdfea2646970667358221220c24296622ef82fd32b74a20773f3554f2a17dfa85d7ca0caa0161baa51ae8c6564736f6c63430008070033",
  "immutableReferences": {},
  "source": "// SPDX-License-Identifier: MIT\r\npragma solidity ^0.8.7;\r\n\r\n\r\ncontract verifyCitizen{\r\n\r\n\tfunction getMessageHash(uint _rationCardNo, string memory _citizenIPFSLinkEnc, address _wallet) public pure returns(bytes32){\r\n\t\treturn keccak256(abi.encodePacked(_rationCardNo, _citizenIPFSLinkEnc, _wallet));\r\n\t}\r\n\r\n\tfunction getEthSignedMessageHash(bytes32 _messageHash) public pure returns(bytes32){\r\n\t\treturn keccak256(abi.encodePacked(\"\\x19Ethereum Signed Message\\n32\",_messageHash));\r\n\t}\r\n\r\n\tfunction verify(address _signer, uint _rationCardNo, string memory _citizenIPFSLinkEnc, address _wallet, bytes memory _signature) public pure returns(bool){\r\n\t\tbytes32 messageHash = getMessageHash(_rationCardNo, _citizenIPFSLinkEnc, _wallet);\r\n\t\tbytes32 ethSignedMessageHash = getEthSignedMessageHash(messageHash);\r\n\t\treturn recoverSigner(ethSignedMessageHash , _signature) == _signer;\r\n\t}\r\n\r\n\tfunction recoverSigner(bytes32 _ethSignedMessageHash , bytes memory _signature) public pure returns(address){\r\n\t\t(bytes32 r, bytes32 s, uint8 v) = splitSignature(_signature);\r\n\t\treturn ecrecover(_ethSignedMessageHash,v,r,s);\r\n\t}\r\n\r\n\tfunction splitSignature(bytes memory _sig) public pure returns(bytes32 r, bytes32 s, uint8 v){\r\n\t\trequire(_sig.length == 65, \"invalid signature length\");\r\n\t\tassembly{\r\n\t\t\tr := mload(add(_sig,32))\r\n\t\t\ts := mload(add(_sig,64))\r\n\t\t\tv := byte(0, mload(add(_sig,96)))\r\n\t\t}\r\n\t}\r\n}\r\n",
  "sourcePath": "C:\\Users\\RAJDEEP\\Desktop\\Smart Contract\\contracts\\verifyCitizen.sol",
  "compiler": {
    "name": "solc",
    "version": "0.8.7+commit.e28d00a7.Emscripten.clang"
  },
  "schemaVersion": "3.4.3",
  "updatedAt": "2023-02-19T05:45:01.393Z",
  "devdoc": {
    "kind": "dev",
    "methods": {},
    "version": 1
  },
  "userdoc": {
    "kind": "user",
    "methods": {},
    "version": 1
  }
}